:020000040800F2
:100000006804002001010008090100080B01000834
:100010000D0100080F010008110100080000000098
:1000200000000000000000000000000013010008B4
:10003000150100080000000017010008ED1300087A
:100040001B0100081B0100081B0100081B01000820
:100050001B0100081B0100081B01000865080008BF
:100060001B0100081B0100081B01000819060008FD
:100070001B0100081B0100081B0100081B010008F0
:100080001B0100081B0100081B0100081B010008E0
:100090001B0100081B0100081B0100081B010008D0
:1000A0001B0100081B0100081B0100081B010008C0
:1000B0001B0100081B0100081B0100081B010008B0
:1000C0001B0100081B0100081B0100081B010008A0
:1000D0001B0100081B0100081B0100081B01000890
:1000E000ED0600081B0100081B010008DFF80CD01A
:1000F00000F0A0F800480047FD1800086804002040
:100100000648804706480047FEE7FEE7FEE7FEE7B1
:10011000FEE7FEE7FEE7FEE7FEE7FEE73514000830
:10012000ED0000080EB5C10F80EAE0700844CA0770
:10013000002140F233438DE80E000A460B4600F0E2
:100140002AF803B000BD000030B5041E71F10004B0
:1001500004DB4FF00044404264EB0101141E73F1D4
:10016000000405DB1C464FF00043524263EB0403DE
:10017000994208BF904230BD10B5141E73F10004BF
:1001800008DA401C41F1000192185B411A4301D189
:1001900020F0010010BD2DE9F04D92469B4611B1B3
:1001A000B1FA81F202E0B0FA80F22032904600F01B
:1001B00053F804460F4640EA0A0041EA0B01534651
:1001C0005A46084313D0114653EA010019D0C8F12A
:1001D0004002504600F04FF805460E46504659463C
:1001E000424600F039F8084305D0012004E02046DB
:1001F0003946BDE8F08D0020054346EAE0762C4301
:1002000037430A986305E40AA0EB08000022FD0AC0
:1002100044EA47540A3002D500200146E9E70105C7
:1002200010196941DDE9084500196941BDE8F04D43
:10023000A2E70000064C074D06E0E06840F001032D
:1002400094E8070098471034AC42F6D3FFF752FF0A
:100250003C1900085C190008202A04DB203A00FA47
:1002600002F1002070479140C2F1200320FA03F30D
:10027000194390407047202A04DB203A21FA02F00B
:100280000021704721FA02F3D040C2F120029140D0
:1002900008431946704721B1826842F0010282602A
:1002A00003E0826822F001028260704721B1826817
:1002B00042F48072826003E0826822F4807282607D
:1002C0007047000000B591B00121084600F036FEED
:1002D00004200890002007900F90494806904FF4A2
:1002E00080600C9080200A9020200D904548059059
:1002F00080150B90002009904FF480500E9005A9B6
:10030000414800F0D4F9012202213F4800F0C6F92B
:100310000B20012181404209920002F1E022C2F843
:10032000001100BF0121384800F096F901214FF477
:10033000017000F023FE0F20ADF8400000208DF882
:10034000430010A9314800F059FB00208DF805004A
:1003500003904FF4202002900020009004208DF89C
:10036000100001208DF80400694626484C3800F042
:1003700065F8012123484C38FFF78DFF0121214802
:100380004C38FFF793FF4FF4404000F0CBFD0623BD
:10039000012200211B484C3800F078F80623022285
:1003A000012118484C3800F071F80623032202217D
:1003B00014484C3800F06AF806230422032111483F
:1003C0004C3800F063F80F484C3800F0BBF800BF21
:1003D0000C484C3800F027F80028F9D109484C386F
:1003E00000F0B5F800BF07484C3800F01CF80028B2
:1003F000F9D1012103484C3800F00AF811B000BDD2
:10040000040000204C240140080002400008014084
:1004100021B1826842F48012826003E0826822F493
:10042000801282607047014600208A6802F0040250
:100430000AB1012000E000207047000030B50246FC
:100440000020002350680F4C20400D790C6844EACE
:1004500005242043506090680B4C2040D1E90254A1
:100460002C434D7944EA450420439060D06A20F43F
:1004700070000C7C641EE4B2234340EA0350D06257
:1004800030BD0000FFFEF0FFFDF7F1FFF0B50446C0
:100490000D4600200021092D11DDE068A5F10A06B6
:1004A00006EB4607072606FA07F18843A5F10A0678
:1004B00006EB460603FA06F10843E0600CE020690B
:1004C00005EB4507072606FA07F1884305EB4506C5
:1004D00003FA06F108432061072A0FDA606B561E03
:1004E00006EB86071F2606FA07F18843561E06EB21
:1004F000860605FA06F10843606322E00D2A0FDA4A
:10050000206BD61F06EB86071F2606FA07F18843E5
:10051000D61F06EB860605FA06F10843206310E0B5
:10052000E06AA2F10D0606EB86071F2606FA07F120
:100530008843A2F10D0606EB860605FA06F108438C
:10054000E062F0BD816841F0080181607047816818
:1005500041F00401816070470EB50121092000F0CF
:100560000DFD4FF47040ADF8080028208DF80B0009
:1005700002A9284800F042FA4FF480500090012070
:100580008DF8060000208DF8040008208DF8050085
:10059000684600F0C9F94FF400500090684600F03A
:1005A000C3F94FF480400090684600F0BDF94FF465
:1005B00000400090684600F0B7F90C21012000F0DF
:1005C000FDF90D21012000F0F9F90E21012000F0C4
:1005D000F5F90F21012000F0F1F94FF4805000F0FF
:1005E00089F94FF4005000F085F94FF4804000F095
:1005F00081F94FF4004000F07DF9282000F01F023F
:10060000012191404209920002F1E022C2F800115A
:1006100000BF0EBD000C014010B5022000F028F80C
:10062000012807D100F0D2FB034800F04BFB022069
:1006300000F004F810BD00005700002000F08051C9
:1006400011B10349086001E00249486070470000A9
:10065000040402400000024021B1026842F001029D
:10066000026004E002684FF6FE731A4002607047B1
:1006700001460020002201F0805313B1054B1A6897
:1006800001E0054B1A6802EA01030BB1012000E00A
:100690000020704700040240000002401AB10368C5
:1006A0000B43036002E003688B430360704710B59F
:1006B0000022026847F6F0739A430C6A8B68234362
:1006C0000C6923434C6923438C692343CC6923433E
:1006D0004C6A23438C6A23431A430260CB6843600D
:1006E0000B6883604B68C36010BD000010B54FF409
:1006F000805000F005F9012829D15648006800F41F
:100700008050F8B1142001F0A7F85248006800F4B6
:100710008050B8B100BF4F48006800F480500028F6
:10072000F9D14D484088642800DB10BD4B48007863
:1007300080F0010049490870082000F047FB484854
:1007400000F0C0FA4FF4805000F0D4F87FE04FF48E
:10075000005000F0D5F8012824D13E48006800F48C
:100760000050D0B1142001F077F83A48006800F446
:10077000005090B100BF3748006800F400500028D6
:10078000F9D13648007880F002003449087008201A
:1007900000F01CFB324800F095FA4FF4005000F0D6
:1007A000A9F854E04FF4804000F0AAF8012824D1C1
:1007B0002848006800F48040D0B1142001F04CF8C3
:1007C0002448006800F4804090B100BF21480068D0
:1007D00000F480400028F9D12048007880F004001F
:1007E0001E490870082000F0F1FA1D4800F06AFA6E
:1007F0004FF4804000F07EF829E04FF4004000F014
:100800007FF8012823D11348006800F40040D0B1DC
:10081000142001F021F80F48006800F4004090B166
:1008200000BF0C48006800F400400028F9D10B48D4
:10083000007880F0080009490870082000F0C6FA26
:10084000074800F03FFA4FF4004000F053F800BFB3
:100850006BE70000080C0140040000200C000020A1
:100860005700002010B51F48006840F480701D49F3
:100870000860072000F0E2FC1B4908700846007879
:1008800000F0200080B100F0F3FB1848007800F081
:10089000010020B14FF4807000F064F91DE04FF4C6
:1008A000807000F069F918E00F48007800F040000F
:1008B00018B10F4800F0E6F90FE00B48007800F09F
:1008C000100050B14FF4807000F042F900F0D0FBFE
:1008D00005480178272000F0F5FC022000F00AF816
:1008E00010BD000014080140180000200C0000207A
:1008F0004C000020014908607047000014040140CA
:10090000014600200022074B1B6803EA0102054B49
:1009100014331B680B4013B10AB1012000E0002022
:100920007047000000040140002123498279002A19
:100930003AD00A46126803689A430B461A600A1DA9
:10094000126803689A430B1D1A60027911440A6801
:1009500003681A430A60184A0832126803689A4307
:10096000154B08331A601A1D126803689A43124B1C
:100970000C331A604279102A0ED11A1F12680368CC
:100980001A430D4B08331A601A1D126803681A4384
:10099000094B0C331A600DE00749427911440A688B
:1009A00003681A430A6005E0027911440A68036883
:1009B0009A430A60704700000004014030B50022ED
:1009C0008B071C0F0F2303FA04F20B4B8C1053F808
:1009D00024309343084C8D1044F8253023468C1066
:1009E00053F824308C07240F00FA04F42343024CFC
:1009F0008D1044F8253030BD080001402DE9F0414C
:100A0000024600250026002000230024002791F83C
:100A100003C00CF00F0591F803C00CF0100CBCF1F2
:100A2000000F03D091F802C04CEA050591F800C010
:100A3000BCF1000F31D0146800202BE04FF0010C06
:100A40000CFA00F3B1F800C00CEA03069E4220D174
:100A500083004FF00F0C0CFA03F7BC4305FA03FCBC
:100A60004CEA040491F803C0BCF1280F06D14FF002
:100A7000010C0CFA00FCC2F814C00AE091F803C0A3
:100A8000BCF1480F05D14FF0010C0CFA00FCC2F884
:100A900010C0401C0828D1D31460B1F800C0BCF1CC
:100AA000FF0F34DD546800202EE000F1080C4FF0F9
:100AB000010808FA0CF3B1F800C00CEA03069E42E4
:100AC00021D183004FF00F0C0CFA03F7BC4305FA59
:100AD00003FC4CEA040491F803C0BCF1280F05D1D3
:100AE00000F1080C08FA0CF8C2F8148091F803C061
:100AF000BCF1480F07D100F1080C4FF0010808FACB
:100B00000CF8C2F81080401C0828CED35460BDE811
:100B1000F0814161704701617047000008B5012113
:100B2000082000F02BFA4FF44070ADF800001020C0
:100B30008DF8030003208DF8020069460348FFF793
:100B40005DFF4FF4407000F003F808BD000C014059
:100B500010B5044621460248FFF7DDFF10BD000036
:100B6000000C014010B5044621460248FFF7D1FFB2
:100B700010BD0000000C0140024909684140014AD3
:100B8000116070470C0C01400EB500F09BFA01217A
:100B90000D2000F0F3F94FF48070ADF8080010203C
:100BA0008DF80B0003208DF80A0002A93148FFF7E9
:100BB00025FF0220ADF8080048208DF80B0002A99F
:100BC0002D48FFF71BFF0220009001208DF8060042
:100BD00000208DF804000C208DF805006846FFF712
:100BE000A3FE01210846FFF7E9FE0720012181400D
:100BF0004209920002F1E022C2F8001100BF1D4834
:100C00001430006840F480701A49143108600321E0
:100C1000232000F057FB05221849302000F02AFB62
:100C2000052217492A2000F025FB1A21242000F074
:100C300049FB0121212000F045FB0121222000F089
:100C400041FB0721262000F03DFB1E21252000F05E
:100C500039FB0B21312000F035FB0F21202000F063
:100C600031FB04481030006840F4807001491031B5
:100C700008600EBD00080140000C01400E0000207D
:100C80001300002010B504460C48006840F4807042
:100C90000A4908600B222146612000F0A7FA0848A3
:100CA0000178272000F00EFB0448001F006840F484
:100CB00080700249091F086010BD0000140801403F
:100CC0001800002010B504460F48006840F48070FA
:100CD0000D4908600C222146A02000F0CBFA0E211D
:100CE000202000F0EFFA7E21272000F0EBFA0648E2
:100CF000001F006840F480700349091F086001204C
:100D000000F0AAFD10BD00001408014010B500223B
:100D10001146052000F025F8044621464FF0FF302B
:100D200000F040F800220121052000F01AF80446E6
:100D30002146072000F036F801221146052000F078
:100D400010F8044621460B2000F02CF80022012167
:100D5000052000F006F804462146282000F022F87D
:100D600010BDF0B503460C4603F00701C1F10700C2
:100D7000042801D9042001E0C1F107000646081D3E
:100D8000072801D2002000E0C81E05460120B0401F
:100D9000401E2040A8400127AF407F1E1740384327
:100DA000F0BD000010B5002807DA0A07140E054A46
:100DB00000F00F031B1FD45403E00A07130E024A6E
:100DC000135410BD18ED00E000E400E02DE9F041FF
:100DD00004464E49498801EB410505EBD5714C4A63
:100DE0001288A2EB6100FFF79DF906460022494BED
:100DF000FFF7AAF906D846480088A0F5487044498C
:100E0000088009E04149498801EB410000EBD071BD
:100E1000C1F34F013E4A11803C488088B0F5C86F4D
:100E20000ADC3A48808800EB40004FF4A07190FB48
:100E3000F1F03649888014E03448808840F6340167
:100E400088420BDB3148808800EB40004FF4AF71E3
:100E500090FBF1F0C01E2D49888002E00F202B4945
:100E600088802A48C088B0F5E16F07DC2748C08831
:100E7000782190FBF1F02549C88014E02348C08810
:100E800040F6FC0188420BDB2048C08800EB4000A4
:100E90004FF4AA7190FBF1F0401F1C49C88002E09A
:100EA0000F201A49C8801C480078C82803DB00209E
:100EB0001949087004E018480078401C1649087069
:100EC0001648047016480078144948700F48007896
:100ED00088700E484078C8700D48007808710C483A
:100EE0004078487109480079887108484079C8718C
:100EF0000648807908720548C0794872064800782B
:100F00008872A520C872BDE8F081000004000020AE
:100F10001C000020000089401A000020570000201B
:100F20000C00002001460020034A506820F4404095
:100F300008435060704700000010024029B1064A83
:100F400052690243044B5A6104E0034A52698243E6
:100F5000014B5A61704700000010024029B1064A57
:100F6000D2690243044BDA6104E0034AD269824346
:100F7000014BDA61704700000010024029B1064AB7
:100F800092690243044B9A6104E0034A92698243E6
:100F9000014B9A61704700000010024030B50021FB
:100FA0000022002400232D4D6D6805F00C0121B1B5
:100FB000042905D0082923D105E0294D056022E048
:100FC000274D05601FE0254D6D6805F47012234D17
:100FD0006D6805F48034022505EB92421CB9214D61
:100FE000554305600BE01D4D6D6805F400351DB1DE
:100FF0001C4D5543056002E0194D5543056002E064
:10100000174D056000BF00BF144D6D6805F0F0017D
:101010000909154D6B5C0568DD4045600F4D6D6835
:1010200005F4E061090A104D6B5C4568DD408560A0
:101030000A4D6D6805F46051C90A0B4D6B5C45683B
:10104000DD40C560054D6D6805F44041890B074DD5
:101050006B5CC568B5FBF3F5056130BD001002405F
:1010600000127A0000093D001E0000202E00002022
:1010700010B50D48006840F480700B4908600F21DE
:10108000202000F01FF97E21272000F01BF90648E0
:10109000001F006840F480700349091F0860C820E1
:1010A00000F0FCFB10BD00001408014021B10288D3
:1010B00042F04002028004E002884FF6BF731A40FB
:1010C0000280704700B587B001210420FFF756FF6A
:1010D00003208DF80600E020ADF8040018208DF8FC
:1010E000070001A91B48FFF789FC1020ADF8040098
:1010F0008DF8070003208DF8060001A91548FFF7B9
:101100007DFC01210803FFF739FF0020ADF808003E
:101110004FF48270ADF80A000020ADF80C00ADF875
:101120000E00ADF810004FF40070ADF8120008206A
:10113000ADF814000020ADF816000720ADF8180037
:1011400002A9054800F018F801210348FFF7AEFF97
:1011500007B000BD000801400030014002460020F9
:1011600013890B400BB1012000E0002070470146BD
:10117000888970478181704710B50022028802F487
:1011800041520B884C8823438C882343CC882343CB
:101190000C8923434C8923438C892343CC892343E3
:1011A0001A430280838B4FF2FF74234083830B8AA0
:1011B000038210BD10B5044600BF02210A48FFF7A4
:1011C000CDFF0028F9D021460748FFF7D3FF00BF25
:1011D00001210548FFF7C2FF0028F9D00248FFF7B8
:1011E000C6FFC0B210BD00000030014070B5064619
:1011F0000C4615460F48006840F010000D49086085
:101200003046FFF7D7FF0C49087006E00020FFF7D3
:10121000D1FF2070641C681EC5B2002DF6D10548B0
:10122000001F006840F010000249091F08600248D2
:10123000007870BD140801400D00002070B5044610
:101240000B48006840F01000094908602046FFF78D
:10125000B1FF0020FFF7AEFF05460548001F0068FC
:1012600040F010000249091F0860284670BD0000C8
:101270001408014070B506460C4615460F48006834
:1012800040F010000D4908603046FFF793FF0C490D
:10129000087005E02078FFF78DFF641C681EC5B25A
:1012A000002DF7D10548001F006840F010000349E9
:1012B000091F08600248007870BD00001408014052
:1012C0000D00002070B505460C460C48006840F043
:1012D00010000A4908602846FFF76CFF08490870AB
:1012E0002046FFF767FF0548001F006840F0100028
:1012F0000249091F08600248007870BD14080140C7
:101300000D00002010B500F001F810BD0CB5002054
:10131000019000903348006840F480303149086003
:1013200000BF3048006800F4003000900198401C75
:101330000190009818B90198B0F5A06FF1D1294833
:10134000006800F4003010B10120009001E000209E
:1013500000900098012843D12348006840F0100015
:10136000214908600846006820F00300086008462C
:10137000006840F0020008601A4840681949486057
:101380000846406848600846406840F4806048600D
:101390000846406820F47C1048600846406840F4E5
:1013A000E81048600846006840F08070086000BFA0
:1013B0000C48006800F000700028F9D00948406827
:1013C00020F00300074948600846406840F00200EA
:1013D000486000BF0348406800F00C000828F9D1BD
:1013E0000CBD0000001002400020024004480068CC
:1013F00020B103480068401E0149086070470000A2
:1014000000000020094800680949B0FBF1F0401EC7
:101410004FF0E021486100208861062008610846FD
:10142000006920F0010008617047000034000020CE
:1014300040420F0010B51348006840F00100114908
:10144000086008464068104908400E494860084650
:1014500000680E4908400B4908600846006820F4FF
:10146000802008600846406820F4FE0048604FF481
:101470001F008860FFF746FF4FF0006004490860D6
:1014800010BD0000001002400000FFF8FFFFF6FE54
:1014900008ED00E021B1028842F08002028004E001
:1014A00002884FF67F731A400280704721B102888C
:1014B00042F00102028004E002884FF6FE731A40F7
:1014C0000280704770B5002200230024058C4EF680
:1014D000FF7635400584038C8488828B48F6FF753F
:1014E0002A404FF6FF452A400D884FF6FF7606EA60
:1014F00005252A434DF6FF752B400D8906EA053573
:101500002B434D8806EA05352B430B4DA84202D0EC
:101510000A4DA84208D14BF6FF752C408D894FF635
:10152000FF7606EA85152C4384808283CD88A0F857
:101530004050038470BD0000002C01400034014085
:101540000A460021818B4FF2FF7319404FF6FF735B
:1015500003EA0223194381837047000030B587B046
:101560004EF660256C1001210420FFF7F7FC0020E7
:10157000ADF816007720ADF810000020ADF812008D
:10158000ADF8145004A9104800F020F86020ADF820
:1015900000000020ADF808000120ADF80200ADF811
:1015A000064069460848FFF78DFF01210648FFF70E
:1015B00071FF08210448FFF7C3FF01210248FFF72C
:1015C00075FF07B030BD000000080040002202880F
:1015D0001D4B98420ED01D4B98420BD0B0F1804F5E
:1015E00008D01B4B984205D01A4B984202D01A4B98
:1015F000984204D14FF68F731A404B881A43174B09
:10160000984207D0164B984204D04FF6FF431A4039
:10161000CB881A4302808B8883850B8803850A4B0D
:1016200098420BD0094B984208D00E4B984205D0F7
:101630000D4B984202D00D4B984201D10B7A038694
:101640000123838270470000002C014000340140D8
:101650000004004000080040000C00400010004062
:101660000014004000400140004401400048014097
:1016700021B1828942F40052828104E082894DF6D0
:10168000FF731A408281704700B585B001210420A4
:10169000FFF774FC01218803FFF770FC4FF4007022
:1016A000ADF8100018208DF8130003208DF81200FB
:1016B00004A91448FFF7A2F94FF48060ADF81000B8
:1016C00004208DF8130004A90E48FFF797F94FF492
:1016D000E13000900020ADF80C000C20ADF80A00BD
:1016E0000020ADF80800ADF80600ADF8040069462A
:1016F000054800F019F801210348FFF7B9FF05B0CC
:1017000000BD0000000801400038014002460020F2
:10171000B1F5007F00D100BF13880B400BB1012051
:1017200000E00020704700002DE9F04786B0054634
:101730000E460024A24600BFA1460027B08900B192
:1017400000BF2F462C8A4CF6FF700440F0880443FB
:101750002C82AC894EF6F3100440B08831890843DE
:10176000718908430443AC81AC8A4FF6FF400440C2
:10177000B0890443AC8201A8FFF710FC1F488742E0
:1017800002D1DDF810A001E0DDF80CA0A88900F47A
:10179000004040B10AEBCA0000EB0A103168490072
:1017A000B0FBF1F807E00AEBCA0000EB0A10316861
:1017B0008900B0FBF1F86420B8FBF0F004012009C7
:1017C000642101FB1089A88900F4004040B1322057
:1017D00000EBC900B0FBF1F000F00700044308E0A3
:1017E000322000EB09106421B0FBF1F000F00F0093
:1017F00004432C8106B0BDE8F087000000380140AA
:10180000C1F3080282807047014A024900F013B810
:10181000D91800084800002002E008C8121F08C1BB
:10182000002AFAD170477047002001E001C1121F61
:10183000002AFBD170472DE9F04116460F460446B9
:10184000002503E03946B047641C6D1C2078002851
:10185000F8D12846BDE8F08100B970474FF47A719D
:1018600041430D4A116000214FF0E0229161114681
:10187000096941F00101116100BF074909680029A8
:10188000FBD14FF0E021096921F001014FF0E02286
:10189000116100BFE1E700000000002000B97047BF
:1018A0000C49086000214FF0E0229161114609695E
:1018B00041F00101116100BF064909680029FBD10F
:1018C0004FF0E021096921F001014FF0E0221161A0
:1018D00000BFE4E70000002070B504460D46E1B209
:1018E0000548FFF78DFF00BF80210348FFF70EFF7B
:1018F0000028F9D0204670BD00380140FFF7C4FE33
:1019000009A0FFF781FFFFF77DFDFFF7FFF9FEF765
:1019100023FEFFF703F9FFF737F9FFF71FFEFEF786
:10192000D1FC00BFFEE7000075736172742069731B
:101930002072656164790D0A000000005C190008DE
:10194000000000204C00000018180008A81900082A
:101950004C0000201C0400002818000800000000B3
:1019600000000000000000000000344310100134AB
:101970004310100100000000000000000000010200
:101980000304010203040607080902040608000014
:1019900000A24A040000000000000000010203044D
:0819A000060708090000000021
:04000005080000ED02
:00000001FF
