:020000040800F2
:100000001804002001010008090100080B01000884
:100010000D0100080F010008110100080000000098
:1000200000000000000000000000000013010008B4
:10003000150100080000000017010008190500085C
:100040001B0100081B0100081B0100081B01000820
:100050001B0100081B0100081B0100081B01000810
:100060001B0100081B0100081B0100081B01000800
:100070001B0100081B0100081B0100081B010008F0
:100080001B0100081B0100081B0100081B010008E0
:100090001B0100081B0100081B0100081B010008D0
:1000A0001B0100081B0100081B0100081B010008C0
:1000B0001B0100081B0100081B0100081B010008B0
:1000C0001B0100081B0100081B0100081B010008A0
:1000D0001B0100081B0100081B0100081B01000890
:1000E0001B0100081B0100081B010008DFF80CD0F1
:1000F00000F018F800480047250600081804002002
:100100000648804706480047FEE7FEE7FEE7FEE7B1
:10011000FEE7FEE7FEE7FEE7FEE7FEE76105000813
:10012000ED000008064C074D06E0E06840F00103D2
:1001300094E8070098471034AC42F6D3FFF7DAFF93
:1001400038060008580600082DE9F041024600254F
:100150000026002000230024002791F803C00CF0A3
:100160000F0591F803C00CF0100CBCF1000F03D088
:1001700091F802C04CEA050591F800C0BCF1000FEF
:1001800031D0146800202BE04FF0010C0CFA00F382
:10019000B1F800C00CEA03069E4220D183004FF064
:1001A0000F0C0CFA03F7BC4305FA03FC4CEA0404F9
:1001B00091F803C0BCF1280F06D14FF0010C0CFAE6
:1001C00000FCC2F814C00AE091F803C0BCF1480F6B
:1001D00005D14FF0010C0CFA00FCC2F810C0401C15
:1001E0000828D1D31460B1F800C0BCF1FF0F34DD92
:1001F000546800202EE000F1080C4FF0010808FAC6
:100200000CF3B1F800C00CEA03069E4221D1830032
:100210004FF00F0C0CFA03F7BC4305FA03FC4CEA51
:10022000040491F803C0BCF1280F05D100F1080CBB
:1002300008FA0CF8C2F8148091F803C0BCF1480F1A
:1002400007D100F1080C4FF0010808FA0CF8C2F8C9
:100250001080401C0828CED35460BDE8F081416175
:1002600070470161704704460DE04FF4807000F064
:100270007FF8204600F0B4F94FF4807000F028F8C1
:10028000204600F0ADF9F0E708B50121182000F094
:10029000BFF810208DF8030003208DF802004FF402
:1002A0006040ADF8000069460748FFF74DFF4FF486
:1002B0007340ADF8000069460448FFF745FF40F27F
:1002C000FF1000F005F808BD00100140000C0140CF
:1002D00010B5044604F0010020B14FF4005122484B
:1002E000FFF7BFFF04F0020020B14FF480411E4829
:1002F000FFF7B7FF04F0040020B14FF400411A48A3
:10030000FFF7AFFF04F0080020B14FF40041174899
:10031000FFF7A7FF04F0100020B14FF4804113480D
:10032000FFF79FFF04F0200020B14FF400510F4869
:10033000FFF797FF04F0400020B14FF400710B4825
:10034000FFF78FFF04F0800020B14FF48071074861
:10035000FFF787FF04F4807020B14FF48051034809
:10036000FFF77FFF10BD000000100140000C0140AE
:1003700010B5044604F0010020B14FF400512248AA
:10038000FFF76DFF04F0020020B14FF480411E48DA
:10039000FFF765FF04F0040020B14FF400411A4854
:1003A000FFF75DFF04F0080020B14FF4004117484B
:1003B000FFF755FF04F0100020B14FF480411348BF
:1003C000FFF74DFF04F0200020B14FF400510F481B
:1003D000FFF745FF04F0400020B14FF400710B48D7
:1003E000FFF73DFF04F0800020B14FF48071074813
:1003F000FFF735FF04F4807020B14FF480510348BB
:10040000FFF72DFF10BD000000100140000C01405F
:1004100029B1064A92690243044B9A6104E0034AF7
:1004200092698243014B9A617047000000100240BC
:1004300010B500F001F810BD0CB50020019000903F
:100440003348006840F480303149086000BF3048CC
:10045000006800F4003000900198401C0190009862
:1004600018B90198B0F5A06FF1D12948006800F4DF
:10047000003010B10120009001E0002000900098B1
:10048000012843D12348006840F01000214908604A
:100490000846006820F0030008600846006840F045
:1004A000020008601A4840681949486008464068D8
:1004B00048600846406840F48060486008464068EC
:1004C00020F47C1048600846406840F4E81048601A
:1004D0000846006840F08070086000BF0C48006863
:1004E00000F000700028F9D00948406820F00300AF
:1004F000074948600846406840F00200486000BF75
:100500000348406800F00C000828F9D10CBD000039
:1005100000100240002002400448006820B1034857
:100520000068401E0149086070470000000000207C
:10053000094800680949B0FBF1F0401E4FF0E02186
:10054000486100208861062008610846006920F0A3
:1005500001000861704700000400002040420F00C5
:1005600010B51348006840F00100114908600846C2
:100570004068104908400E494860084600680E4926
:1005800008400B4908600846006820F48020086095
:100590000846406820F4FE0048604FF41F00886061
:1005A000FFF746FF4FF000600449086010BD0000EF
:1005B000001002400000FFF8FFFFF6FE08ED00E02B
:1005C00002E008C8121F08C1002AFAD1704770471C
:1005D000002001E001C1121F002AFBD1704700007A
:1005E00000B970474FF47A7141430D4A1160002100
:1005F0004FF0E02291611146096941F0010111615A
:1006000000BF074909680029FBD14FF0E0210969C3
:1006100021F001014FF0E022116100BFE1E700008D
:1006200000000020FFF784FFFFF72EFE4FF47A70E2
:10063000FFF719FE00BFFEE7580600080000002083
:1006400018000000C005000870060008180000200F
:1006500000040000D00500080000000000A24A04C9
:100660000000000000000000010203040607080962
:0400000508000101ED
:00000001FF
