:020000040800F2
:100000003004002001010008090100080B0100086C
:100010000D0100080F010008110100080000000098
:1000200000000000000000000000000013010008B4
:10003000150100080000000017010008690600080B
:100040001B0100081B0100081B0100081B01000820
:100050001B0100081B0100081B0100081B01000810
:100060001B0100081B0100081B0100081B01000800
:100070001B0100081B0100081B0100081B010008F0
:100080001B0100081B0100081B0100081B010008E0
:100090001B0100081B0100081B0100081B010008D0
:1000A0001B0100081B0100081B0100081B010008C0
:1000B0001B0100081B0100081B0100081B010008B0
:1000C0001B0100081B0100081B0100081B010008A0
:1000D0001B0100081B0100081B0100081B01000890
:1000E0001B0100081B0100081B010008DFF80CD0F1
:1000F00000F018F8004800479D090008300400206F
:100100000648804706480047FEE7FEE7FEE7FEE7B1
:10011000FEE7FEE7FEE7FEE7FEE7FEE7B1060008C2
:10012000ED000008064C074D06E0E06840F00103D2
:1001300094E8070098471034AC42F6D3FFF7DAFF93
:10014000E4090008040A00082DE9F04102460025F0
:100150000026002000230024002791F803C00CF0A3
:100160000F0591F803C00CF0100CBCF1000F03D088
:1001700091F802C04CEA050591F800C0BCF1000FEF
:1001800031D0146800202BE04FF0010C0CFA00F382
:10019000B1F800C00CEA03069E4220D183004FF064
:1001A0000F0C0CFA03F7BC4305FA03FC4CEA0404F9
:1001B00091F803C0BCF1280F06D14FF0010C0CFAE6
:1001C00000FCC2F814C00AE091F803C0BCF1480F6B
:1001D00005D14FF0010C0CFA00FCC2F810C0401C15
:1001E0000828D1D31460B1F800C0BCF1FF0F34DD92
:1001F000546800202EE000F1080C4FF0010808FAC6
:100200000CF3B1F800C00CEA03069E4221D1830032
:100210004FF00F0C0CFA03F7BC4305FA03FC4CEA51
:10022000040491F803C0BCF1280F05D100F1080CBB
:1002300008FA0CF8C2F8148091F803C0BCF1480F1A
:1002400007D100F1080C4FF0010808FA0CF8C2F8C9
:100250001080401C0828CED35460BDE8F081416175
:10026000704701617047000008B50121082000F0C7
:100270000DF9C020ADF8000014208DF80300032014
:100280008DF8020069460D48FFF75EFF0B481430F9
:10029000006840F04000094914310860012000F076
:1002A0004DFB06481030006840F0800003491031D3
:1002B0000860012000F042FB08BD0000000C014076
:1002C00004460DE04FF4807000F080F8204600F006
:1002D00013FB4FF4807000F029F8204600F00CFB6F
:1002E000F0E7000008B50121182000F0CFF8102039
:1002F0008DF8030003208DF802004FF46040ADF844
:10030000000069460748FFF71FFF4FF47340ADF840
:10031000000069460448FFF717FF40F2FF1000F0A5
:1003200005F808BD00100140000C014010B504465E
:1003300004F0010020B14FF400512248FFF78FFF75
:1003400004F0020020B14FF480411E48FFF787FF00
:1003500004F0040020B14FF400411A48FFF77FFF7A
:1003600004F0080020B14FF400411748FFF777FF71
:1003700004F0100020B14FF480411348FFF76FFFE5
:1003800004F0200020B14FF400510F48FFF767FF41
:1003900004F0400020B14FF400710B48FFF75FFFFD
:1003A00004F0800020B14FF480710748FFF757FF39
:1003B00004F4807020B14FF480510348FFF74FFFE1
:1003C00010BD000000100140000C014010B50446B3
:1003D00004F0010020B14FF400512248FFF741FF23
:1003E00004F0020020B14FF480411E48FFF739FFAE
:1003F00004F0040020B14FF400411A48FFF731FF28
:1004000004F0080020B14FF400411748FFF729FF1E
:1004100004F0100020B14FF480411348FFF721FF92
:1004200004F0200020B14FF400510F48FFF719FFEE
:1004300004F0400020B14FF400710B48FFF711FFAA
:1004400004F0800020B14FF480710748FFF709FFE6
:1004500004F4807020B14FF480510348FFF701FF8E
:1004600010BD000000100140000C014029B1064AF7
:10047000D2690243044BDA6104E0034AD269824341
:10048000014BDA61704700000010024029B1064AB2
:1004900092690243044B9A6104E0034A92698243E1
:1004A000014B9A61704700000010024030B50021F6
:1004B0000022002400232D4D6D6805F00C0121B1B0
:1004C000042905D0082923D105E0294D056022E043
:1004D000274D05601FE0254D6D6805F47012234D12
:1004E0006D6805F48034022505EB92421CB9214D5C
:1004F000554305600BE01D4D6D6805F400351DB1D9
:100500001C4D5543056002E0194D5543056002E05E
:10051000174D056000BF00BF144D6D6805F0F00178
:100520000909154D6B5C0568DD4045600F4D6D6830
:1005300005F4E061090A104D6B5C4568DD4085609B
:100540000A4D6D6805F46051C90A0B4D6B5C456836
:10055000DD40C560054D6D6805F44041890B074DD0
:100560006B5CC568B5FBF3F5056130BD001002405A
:1005700000127A0000093D00040000201400002051
:1005800010B500F001F810BD0CB5002001900090EE
:100590003348006840F480303149086000BF30487B
:1005A000006800F4003000900198401C0190009811
:1005B00018B90198B0F5A06FF1D12948006800F48E
:1005C000003010B10120009001E000200090009860
:1005D000012843D12348006840F0100021490860F9
:1005E0000846006820F0030008600846006840F0F4
:1005F000020008601A484068194948600846406887
:1006000048600846406840F480604860084640689A
:1006100020F47C1048600846406840F4E8104860C8
:100620000846006840F08070086000BF0C48006811
:1006300000F000700028F9D00948406820F003005D
:10064000074948600846406840F00200486000BF23
:100650000348406800F00C000828F9D10CBD0000E8
:1006600000100240002002400448006820B1034806
:100670000068401E0149086070470000000000202B
:10068000094800680949B0FBF1F0401E4FF0E02135
:10069000486100208861062008610846006920F052
:1006A00001000861704700001800002040420F0060
:1006B00010B51348006840F0010011490860084671
:1006C0004068104908400E494860084600680E49D5
:1006D00008400B4908600846006820F48020086044
:1006E0000846406820F4FE0048604FF41F00886010
:1006F000FFF746FF4FF000600449086010BD00009E
:10070000001002400000FFF8FFFFF6FE08ED00E0D9
:1007100021B1828942F40052828104E082894DF63F
:10072000FF731A408281704700B585B0012108200F
:10073000FFF7ACFE01218804FFF798FE4FF48060BC
:10074000ADF8100018208DF8130003208DF812006A
:1007500004A91448FFF7F8FC4FF40060ADF810004E
:1007600004208DF8130004A90E48FFF7EDFC4FF4A8
:10077000E13000900020ADF80C000C20ADF80A002C
:100780000020ADF80800ADF80600ADF80400694699
:10079000054800F019F801210348FFF7B9FF05B03B
:1007A00000BD0000000C014000480040024600204F
:1007B000B1F5007F00D100BF13880B400BB10120C1
:1007C00000E00020704700002DE9F04786B00546A4
:1007D0000E460024A24600BFA1460027B08900B102
:1007E00000BF2F462C8A4CF6FF700440F08804436B
:1007F0002C82AC894EF6F3100440B088318908434E
:10080000718908430443AC81AC8A4FF6FF40044031
:10081000B0890443AC8201A8FFF748FE1F48874215
:1008200002D1DDF810A001E0DDF80CA0A88900F4E9
:10083000004040B10AEBCA0000EB0A1031684900E1
:10084000B0FBF1F807E00AEBCA0000EB0A103168D0
:100850008900B0FBF1F86420B8FBF0F00401200936
:10086000642101FB1089A88900F4004040B13220C6
:1008700000EBC900B0FBF1F000F00700044308E012
:10088000322000EB09106421B0FBF1F000F00F0002
:1008900004432C8106B0BDE8F08700000038014019
:1008A000C1F3080282807047014A024900F013B880
:1008B000790900082C00002002E008C8121F08C1B6
:1008C000002AFAD170477047002001E001C1121FD1
:1008D000002AFBD170472DE9F04116460F46044629
:1008E000002503E03946B047641C6D1C20780028C1
:1008F000F8D12846BDE8F08100B970474FF47A710D
:1009000041430D4A116000214FF0E02291611146F0
:10091000096941F00101116100BF07490968002917
:10092000FBD14FF0E021096921F001014FF0E022F5
:10093000116100BFE1E700000000002000B970472E
:100940000C49086000214FF0E022916111460969CD
:1009500041F00101116100BF064909680029FBD17E
:100960004FF0E021096921F001014FF0E02211610F
:1009700000BFE4E70000002070B504460D46E1B278
:100980000548FFF78DFF00BF80210348FFF70EFFEA
:100990000028F9D0204670BD00480040FFF7C4FE93
:1009A00008A0FFF781FFFFF76BFEFFF79BFC4FF4FA
:1009B0007A70FFF785FCFF20FFF708FDFFF754FC76
:1009C00000BFFEE775736172742069732072656100
:1009D0006479203A2068656C6C6F20776F726C6464
:1009E0002E0D0A00040A000800000020300000005C
:1009F000B8080008340A0008300000200004000095
:100A0000C808000800000000000000000102030404
:100A100001020304060708090204060800A24A04AA
:100A2000000000000000000001020304060708099E
:040A300000000000C2
:0400000508000101ED
:00000001FF
