:020000040800F2
:10000000B805002001010008090100080B010008E3
:100010000D0100080F010008110100080000000098
:1000200000000000000000000000000013010008B4
:100030001501000800000000170100080525000850
:100040001B0100081B0100081B0100081B01000820
:100050001B0100081B010008950F00081B01000888
:100060001B0100081B0100081B0100081B01000800
:100070001B0100081B0100081B0100081B010008F0
:100080001B0100081B0100081B0100081B010008E0
:100090001B0100081B0100081B0100081B010008D0
:1000A0001B0100081B0100081B0100081B010008C0
:1000B000AD250008D92500081B0100081B01000818
:1000C0001B0100081B0100081B0100081B010008A0
:1000D0001B0100081B0100081B0100081B01000890
:1000E000B10F00081B0100081B010008DFF80CD04D
:1000F00000F0A4FC00480047F1500008B8050020BB
:100100000648804706480047FEE7FEE7FEE7FEE7B1
:10011000FEE7FEE7FEE7FEE7FEE7FEE74D25000807
:10012000ED0000082DE9F0410024061B254671F181
:10013000000605DA01240027D0EB070067EB010178
:10014000161E73F1000605DA0027D2EB070201251F
:1001500067EB030300F064FB86460E4617469C4699
:10016000AC4204D00025D0EB050E65EB010624B1AE
:100170000020D2EB000760EB030C704631463A4694
:100180006346BDE8F081D2B201E000F8012B491EC0
:10019000FBD270470022F6E710B513460A46044624
:1001A0001946FFF7F0FF204610BD30B50446002089
:1001B000034600E05B1C934203D2E05CCD5C401B35
:1001C000F8D030BDF0B480EA0102D40F4200B2EBA7
:1001D000410F02D20246084611464A0042D0C30DE2
:1001E000DDB2C1F3C752AD1A202D35DAC1F31601C5
:1001F00041F4000204B15242C5F1200602FA06F1B0
:100200002A411044B3EBD05F23D0C4B1012DA0EB41
:10021000C35009DCF0BC4FF0004202EAC352DBB22B
:1002200000F5000000F067BB400000F1807000EBBB
:10023000C350A0F1807040EAD170490009E049083C
:1002400041EAC071A0EBC35000F50000400800EB8C
:10025000C350F0BC00F046BB6142012202EB4101F9
:10026000001BF6E7F0BC704781F00041AAE780F080
:100270000040A7E780EA010210B502F00043400009
:1002800022D04A001FD0010E01EB1261C0F35600CC
:10029000C2F3560240F4000042F40002A0FB022028
:1002A00000047F39140400D0401C50EA124001D4ED
:1002B0004000491EC2B20C0604EBD010401C40089E
:1002C000802A02D003E0002010BD20F001000029A8
:1002D00000DA0020184310BD30B480EA010202F0B9
:1002E000004530F0004221F0004013D090B1C30D22
:1002F000D40DC2F31601C0F31600E41A41F4000154
:1003000040F400027D34914201D3641C00E04900B6
:10031000002C02DA30BC002070474FF400000023AC
:10032000914201D3891A034340084FEA4101F7D1B2
:1003300051B1914202D14FF0004105E002D24FF09D
:10034000010101E06FF0010103EBC450284430BC0F
:1003500000F0C8BA2DE9FE4F804681EA0300C00FC5
:100360000C46009021F0004123F00045B8EB02005C
:10037000A94105D24046214690461C460B460246FE
:1003800023F00040104347D0270DC7F30A00C3F302
:100390000A510290401A019040286BDAC3F313000F
:1003A00040F4801B0098924620B10023D2EB030A50
:1003B00063EB0B0B01985946C0F14002504600F028
:1003C00060FA06460D4650465946019A00F078FA02
:1003D00010EB08006141002487EA115284EAE773B8
:1003E0001A4340D0009A62B3019A012A4FEA075299
:1003F00015DC001B61EB02014FF0004202EA0752DC
:10040000CDE90042001C41F5801132462B4600F038
:10041000AFFA03B0BDE8F08F40462146F9E7001B74
:1004200061EB0201001C41F5801300185B412018AC
:10043000A2F5001747EB030140EAD570B6196D41EC
:1004400011E06D084FEA360645EAC0754FEA0752DB
:10045000001B61EB0201001C41F5801149084FEAC5
:1004600030000019514132462B4603B0BDE8F04F31
:1004700000F06FBA0098012240000023D0EB020286
:1004800063EBE073009821464FEAE074B8EB00009C
:1004900061EB0401E9E783F000435BE781F0004191
:1004A00058E72DE9FE4F81EA030404F0004421F0EF
:1004B000004100944FF0000B23F0004350EA010488
:1004C0005ED052EA03045BD0C3F30A54C1F30A5569
:1004D0002C44A4F2F3340194A0FB0254C1F31301A1
:1004E00041F48011C3F3130343F4801301FB02446E
:1004F00000FB034E840A970A44EA815447EA835773
:10050000A4FB076802958D0A05FB07854FEA932C2B
:1005100004FB0C542705029D4FEA065847EA16379C
:10052000B5EB08056EEB070C870E920E47EA8117B4
:1005300042EA8312A7FB0201B6EB0B0164EB000455
:100540002B0D43EA0C335E1844EB1C50DA4651463F
:10055000E7FB0201C5F313044FEA0B3343EA1453DC
:100560004FEA0432019C43EA0603A4F10C0402940E
:10057000009CCDE900B400F0FBF903B0BDE8F08FBA
:1005800000200146F9E72DE9F04D81EA030404F06B
:10059000004B21F0004514464FF0000A23F00041C3
:1005A00050EA050220D054EA01021DD0C5F30A57D3
:1005B0000246C5F31303C1F31300C1F30A5640F416
:1005C000801543F48013A7EB0608101BD64608F2EB
:1005D000FD3873EB050002D308F1010801E0921821
:1005E0005B41B8F1000F03DA00200146BDE8F08D51
:1005F00000204FF48011064684460EE0171B73EB73
:10060000050705D3121B63EB050306434CEA010CF7
:1006100049084FEA300092185B4150EA0107EDD1DA
:1006200052EA030012D082EA040083EA050108437B
:1006300005D0101BAB4106D20122002306E00022A8
:100640004FF0004302E06FF0010253101AEB060076
:100650004CEB085110EB0A0041EB0B01BDE8F04DEB
:1006600000F077B9C10F80EAE0700844CA0796230A
:10067000002100F040B996230022114600F03BB95A
:100680000EB5C10F80EAE0700844CA07002140F2AD
:1006900033438DE80E000A460B4600F069F903B0BB
:1006A00000BD00F0004220F00040C10DC0F3160074
:1006B00040F400007F2901DA00207047962903DC0E
:1006C000C1F19601C84001E096398840002AF4D073
:1006D0004042704720F00040C10DC0F3160040F4C6
:1006E00000007F2901DA00207047962903DCC1F160
:1006F0009601C840704796398840704770B5C1F37D
:100700000A5201F000450024C1F3130140F2FF3307
:1007100041F480119A4201DA002070BD40F2334367
:100720009A42A2F2334203DC524200F0B9F800E0F0
:1007300090402C43F1D0404270BD00F0004230F0B8
:1007400000400AD0C10D01F56071C0F3160042EA05
:100750000151C2084007114370470020014670470D
:1007600030B5041E71F1000404DB4FF00044404238
:1007700064EB0101141E73F1000405DB1C464FF00D
:100780000043524263EB04038B4208BF824230BDF8
:1007900030B5041E71F1000404DB4FF00044404208
:1007A00064EB0101141E73F1000405DB1C464FF0DD
:1007B0000043524263EB0403994208BF904230BDAC
:1007C00001F0004330B421F0004150EA010206D0AC
:1007D0000A0DA2F56072C1F31301002A02DC30BCDD
:1007E00000207047440F44EAC104C100E01830BC47
:1007F00000EBC25000F076B8002801DBC0F10040E9
:10080000002901DBC1F1004181427047002801DB72
:10081000C0F10040002901DBC1F10041884270476E
:100820002DE9F05F0546002092469B468846064625
:10083000814640241BE0284641464746224600F0B8
:100840002FF853465A46C01A914110D31146184604
:10085000224600F016F82D1A67EB01084F46224693
:100860000120002100F00DF817EB00094E41201E79
:10087000A4F10104DFDC484631462A464346BDE880
:10088000F09F202A04DB203A00FA02F10020704792
:100890009140C2F1200320FA03F3194390407047BE
:1008A000202A04DB203A21FA02F00021704721FAC5
:1008B00002F3D040C2F1200291400843194670472C
:1008C000202A06DBCB17203A41FA02F043EAE07314
:1008D00006E041FA02F3D040C2F120029140084301
:1008E000194670470029A8BF7047401C490008BF3F
:1008F00020F00100704710B4B0FA80FC00FA0CF050
:1009000050EA010404BF10BC704749B1CCF1200487
:1009100021FA04F411FA0CF118BF01212143084314
:10092000A3EB0C01CB1D4FEA00614FEA102042BF40
:10093000002010BC704700EBC35010440029A4BF36
:1009400010BC7047401C490008BF20F0010010BCDB
:10095000704710B5141E73F1000408DA401C41F111
:10096000000192185B411A4301D120F0010010BD33
:100970002DE9F04D92469B4611B1B1FA81F202E0A9
:10098000B0FA80F220329046FFF77BFF04460F4614
:1009900040EA0A0041EA0B0153465A46084313D085
:1009A000114653EA010019D0C8F140025046FFF742
:1009B00077FF05460E46504659464246FFF761FF0F
:1009C000084305D0012004E020463946BDE8F08DFB
:1009D0000020054346EAE0762C4337430A98630536
:1009E000E40AA0EB08000022FD0A44EA47540A305A
:1009F00002D500200146E9E7010510196941DDE94A
:100A0000084500196941BDE8F04DA2E770B521F035
:100A1000004303430CD0C1F30A550024D5EB040571
:100A200064EB0403D617AD1AB34102DB0020014684
:100A300070BD201841EB025170BD0000064C074DFF
:100A400006E0E06840F0010394E80700984710349E
:100A5000AC42F6D3FFF74EFB90720008B07200086C
:100A60002DE9F04D00231A461B1A8A4103DB0020B2
:100A70000146BDE8F08DC1F30A52C1F3130141F400
:100A800080154FF0000BD10702D100186D41521EA6
:100A90000027044640F2FF11384601EB620A3E4649
:100AA0008046024600204FF48011FFF7F9FEC2197C
:100AB0007141BB1846EB0100B4EB030C75EB000C65
:100AC00004D3E41A65EB000517460E46241908F115
:100AD00001006D4180463428E3DDF91946EB06003C
:100AE000091BA84103D24FF0FF32134601E0002258
:100AF00013461BEB070046EB0A51BDE8F04DFFF72C
:100B000028BF000070B504460D460DE02178084866
:100B100002F0D6F8641C681EC5B200BF80210448EC
:100B200002F054F80028F9D0002DEFDC70BD000071
:100B3000004800402DE9F84F06460F46904699467A
:100B4000DDF828B00024A246AA222146641C57489A
:100B500042542146641C425402222146641C4254E1
:100B600000222146641C425400969DF80120214633
:100B7000641C42549DF800202146641C4254009796
:100B80009DF801202146641C42549DF80020204617
:100B9000611CCCB245490A54CDF800809DF8012073
:100BA0002046611CCCB241490A549DF800202046E1
:100BB000611CCCB23D490A54CDF800909DF801204B
:100BC0002046611CCCB239490A549DF800202046C9
:100BD000611CCCB235490A54CDF800B09DF8012013
:100BE0002046611CCCB231490A549DF800202046B1
:100BF000611CCCB22D490A540B9800909DF801203D
:100C00002046611CCCB229490A549DF80020204698
:100C1000611CCCB225490A540C9800909DF8012023
:100C20002046611CCCB221490A549DF80020204680
:100C3000611CCCB21D490A540D9800909DF801200A
:100C40002046611CCCB219490A549DF80020204668
:100C5000611CCCB215490A540E9800909DF80120F1
:100C60002046611CCCB211490A549DF80020204650
:100C7000611CCCB20D490A54201FC870002506E043
:100C80000A48405D504400F0FF0A681CC5B2A54206
:100C9000F6DB2046611CCCB2044901F800A02146D5
:100CA0000248FFF72FFFBDE8F88F00006101002028
:100CB0002DE9FE4F82460E4617469846DDF830B0C5
:100CC0000024CDF80480A146AA222146641C48488D
:100CD00042542146641C425401222146641C425461
:100CE00000222146641C425442495046FFF7C2FA92
:100CF0000090FFF7D6FC00B202909DF80920214633
:100D0000641C3B4842549DF808202146641C425410
:100D100038493046FFF7AEFA0090FFF7C2FC00B248
:100D200002909DF809202146641C314842549DF8E8
:100D300008202146601CC4B22D4842542D49384633
:100D4000FFF798FA0090FFF7ACFC00B202909DF814
:100D500009202046611CCCB225490A549DF8082080
:100D60002046611CCCB222490A549DF80720204637
:100D7000611CCCB21E490A549DF806202046611C15
:100D8000CCB21B490A549DF805202046611CCCB208
:100D900017490A549DF804202146601CC4B2144827
:100DA00042542046611CCCB2114901F800B02146E2
:100DB000621CD4B20E4A0D985054201F1146C870C0
:100DC000002506E00A48405D484400F0FF09681C21
:100DD000C5B2A542F6DB2046611CCCB2044901F83D
:100DE000009021460248FFF78DFEBDE8FE8F00000F
:100DF000610100200000C84230B587B042F2107493
:100E000042F228350121084601F030F80020ADF803
:100E1000160041F61F40ADF810000020ADF812009A
:100E2000ADF8144004A9A00601F0D4FD6020ADF88F
:100E300000000020ADF808000120ADF80200ADF878
:100E400006506946800701F061FC0121880701F026
:100E500015FC0821C80601F0A5FC0121880701F056
:100E60001FFC0121880701F015FC012211469007A3
:100E700001F042FC1C20012181404209920002F154
:100E8000E022C2F8001100BF07B030BD0EB501214D
:100E9000052000F0FBFF4FF40040ADF808002820CB
:100EA0008DF80B0002A9114800F00AF94FF4004038
:100EB000009001208DF8060000208DF80400082025
:100EC0008DF80500684600F091F80F21002000F031
:100ED000D7F8282000F01F0201219140420992001A
:100EE00002F1E022C2F8001100BF0EBD000801406F
:100EF0001748007800F0010098B9002015490861F2
:100F0000C8601548806888600020144908804880BF
:100F10008880134908601349086001200C49488003
:100F200070470B48408864280FDC0020094908619D
:100F3000C8600948806888600020084908804880A7
:100F40008880074908600749086000BFE8E700009B
:100F5000FC000020080100201C01002000000020EF
:100F6000280000202400002010B508490989C1F19B
:100F70000F00FFF777FB064908600449C988A1F113
:100F80000F00FFF76FFB0249486010BDFC00002016
:100F90000801002010B50548008820F00400001D5D
:100FA00002490880012000F01BF810BD0600002057
:100FB00010B503F0D3FF0648008820F00200801C23
:100FC000034908804FF4004000F004F810BD000011
:100FD0000600002001490860704700001404014029
:100FE00001490860704700001404014000212349B2
:100FF0008279002A3AD00A46126803689A430B465F
:101000001A600A1D126803689A430B1D1A60027960
:1010100011440A6803681A430A60184A08321268C1
:1010200003689A43154B08331A601A1D1268036847
:101030009A43124B0C331A604279102A0ED11A1FB0
:10104000126803681A430D4B08331A601A1D1268A0
:1010500003681A43094B0C331A600DE007494279C3
:1010600011440A6803681A430A6005E002791144D2
:101070000A6803689A430A60704700000004014050
:1010800030B500228B071C0F0F2303FA04F20B4B21
:101090008C1053F824309343084C8D1044F82530BD
:1010A00023468C1053F824308C07240F00FA04F4E4
:1010B0002343024C8D1044F8253030BD0800014018
:1010C0002DE9F041024600250026002000230024DF
:1010D000002791F803C00CF00F0591F803C00CF045
:1010E000100CBCF1000F03D091F802C04CEA0505CA
:1010F00091F800C0BCF1000F31D0146800202BE043
:101100004FF0010C0CFA00F3B1F800C00CEA030632
:101110009E4220D183004FF00F0C0CFA03F7BC4322
:1011200005FA03FC4CEA040491F803C0BCF1280F53
:1011300006D14FF0010C0CFA00FCC2F814C00AE012
:1011400091F803C0BCF1480F05D14FF0010C0CFA27
:1011500000FCC2F810C0401C0828D1D31460B1F8BC
:1011600000C0BCF1FF0F34DD546800202EE000F118
:10117000080C4FF0010808FA0CF3B1F800C00CEAB3
:1011800003069E4221D183004FF00F0C0CFA03F7A7
:10119000BC4305FA03FC4CEA040491F803C0BCF11B
:1011A000280F05D100F1080C08FA0CF8C2F81480D9
:1011B00091F803C0BCF1480F07D100F1080C4FF0C3
:1011C000010808FA0CF8C2F81080401C0828CED399
:1011D0005460BDE8F08141617047016170470000D3
:1011E0002DE9F04102F0DEFD1049B1F90000FFF7F2
:1011F00047FA06460E4A0F4BFFF753F90446FFF72E
:101200007DFA00B20C4988810849B1F90200FFF764
:1012100037FA0646064A074BFFF743F90446FFF73D
:101220006DFA00B20449C881BDE8F0812C010020AC
:101230001F401F401F409F3F1C01002010B50F485A
:10124000006840F040000D490860012002F016FCE3
:101250000A480838006800F0800008B1002400E067
:1012600001240648001D006840F040000349091DA4
:101270000860012002F002FC204610BD100C014065
:1012800008B50121082000F001FEC020ADF80000E3
:1012900014208DF8030003208DF8020069460D48E4
:1012A000FFF70EFF0B481430006840F0400009497A
:1012B00014310860012002F0E1FB0648103000689C
:1012C00040F08000034910310860012002F0D6FB95
:1012D00008BD0000000C014010B504461F4800681E
:1012E00040F040001D490860012002F0C7FB012CBE
:1012F00009D11A48006840F08000184908600120B0
:1013000002F0BCFB0AE01548001F006840F08000B6
:101310001249091F0860012002F0B0FB0F48001FAE
:10132000006840F040000D49091F0860022002F0EB
:10133000A5FB0A48006840F0400008490860012009
:1013400002F09CFB0548001F006840F08000034944
:10135000091F0860012002F091FB10BD140C014030
:1013600010B501F0E7FC1948006840F0400017494B
:101370000860012002F082FB1448001F006840F062
:1013800080001249091F0860012002F077FB0F4816
:10139000001F006840F040000C49091F0860012050
:1013A00002F06CFB0948006840F0800007490860C3
:1013B000012002F063FB0548006840F0400003494B
:1013C0000860012002F05AFB10BD0000140C01401F
:1013D00010B51448006840F0400012490860012030
:1013E00002F04CFB0F48006840F080000D49086097
:1013F000012002F043FB0B48001F006840F0400052
:101400000849091F0860012002F038FB0548001F49
:10141000006840F080000349091F0860012002F0C5
:101420002DFB10BD140C01402DE9F0477749B1F9AF
:101430000E00FFF717F90446754801692046FEF7CC
:1014400016FF744908607149B1F90C00FFF70AF9F9
:1014500004466F48C1682046FEF709FF6E490860E0
:101460006C490868FFF769F9044600226B4BFFF7E7
:101470008FF909D967490868FFF75FF90446002228
:10148000674BFFF76DF903D80020664908700AE042
:101490000120644908705F48016863480068FEF7EE
:1014A00091FE6149086061495F480068FFF7AEF945
:1014B00002D25E485C4908605D495B480068FFF7FE
:1014C0009BF902D25A4858490860524A516810683C
:1014D000FEF7CAFE0746574801683846FEF7CAFEBF
:1014E000054650480078FFF7C6F882465248016822
:1014F0005046FEF7BFFE80464B4801684046FEF767
:10150000B9FE0746434801684C480068FEF7B2FE42
:1015100081463946FEF756FE06462946FEF752FE3C
:101520000446FFF7BEF800B2454948803A490868CA
:10153000FFF703F904460022384BFFF729F909D9D0
:1015400035490868FFF7F9F804460022334BFFF7E6
:1015500007F903D800203B4908700AE00120394907
:1015600008702D48016838480068FEF72BFE3649A0
:1015700008602E4934480068FFF748F902D22B482A
:10158000314908602A4930480068FFF735F902D22E
:1015900027482D490860204A51681068FEF764FE0C
:1015A00007462A4801683846FEF764FE0546254886
:1015B0000078FFF760F88246254801685046FEF73C
:1015C00059FE8046204801684046FEF753FE074614
:1015D000114801681F480068FEF74CFE81463946F5
:1015E000FEF7F0FD06462946FEF7ECFD0446FFF740
:1015F00058F800B21249088006480068054948605A
:101600000548006804494860BDE8F0871C010020D7
:10161000080100205C0000205400002000C062404F
:1016200000C062C0640000202400002000007A4452
:1016300000007AC4500000204C0000204800002028
:101640000000002065000020280000204400002049
:10165000400000203C00002008B50121182000F0C7
:1016600015FC10208DF8030003208DF802004FF4C4
:101670006040ADF8000069460748FFF721FD4FF4D0
:101680007340ADF8000069460448FFF719FD40F2C9
:10169000FF1000F005F808BD00100140000C0140EB
:1016A00010B5044604F0010020B14FF40051224867
:1016B000FFF793FD04F0020020B14FF480411E4873
:1016C000FFF78BFD04F0040020B14FF400411A48ED
:1016D000FFF783FD04F0080020B14FF400411748E4
:1016E000FFF77BFD04F0100020B14FF48041134858
:1016F000FFF773FD04F0200020B14FF400510F48B4
:10170000FFF76BFD04F0400020B14FF400710B486F
:10171000FFF763FD04F0800020B14FF480710748AB
:10172000FFF75BFD04F4807020B14FF48051034853
:10173000FFF753FD10BD000000100140000C0140F8
:1017400010B5044604F0010020B14FF400512248C6
:10175000FFF741FD04F0020020B14FF480411E4824
:10176000FFF739FD04F0040020B14FF400411A489E
:10177000FFF731FD04F0080020B14FF40041174895
:10178000FFF729FD04F0100020B14FF48041134809
:10179000FFF721FD04F0200020B14FF400510F4865
:1017A000FFF719FD04F0400020B14FF400710B4821
:1017B000FFF711FD04F0800020B14FF4807107485D
:1017C000FFF709FD04F4807020B14FF48051034805
:1017D000FFF701FD10BD000000100140000C0140AA
:1017E00000F0010129B12749C96881F40051254A57
:1017F000D16000F0020129B12249C96881F4804119
:10180000204AD16000F0040129B11E49C96881F461
:1018100000411C4AD16000F0080129B11A49096849
:1018200081F40041184A116000F0100129B11649F5
:10183000096881F48041144A116000F0200129B147
:101840001149096881F400510F4A116000F040010C
:1018500029B10D49096881F400710B4A116000F04B
:10186000800129B10849096881F48071064A116034
:1018700000F4807129B10449096881F48051024A59
:1018800011607047001001400C0C014010B5044677
:101890002146024801F095F810BD0000002C0140DF
:1018A00010B504462146024801F08DF810BD000035
:1018B000002C014010B504462146024801F085F88D
:1018C00010BD0000002C014010B50446214602481E
:1018D00001F07DF810BD0000002C014000B589B07A
:1018E0000121042000F0D2FA4FF47060ADF820001E
:1018F00018208DF8230003208DF8220008A9304815
:10190000FFF7DEFB0121C80200F0C0FA0020ADF8AD
:101910001A00ADF816002B48006842F21071B0FBB7
:10192000F1F080B2ADF818000020ADF814008DF889
:101930001C0005A9244801F04DF86020ADF8040012
:101940000020ADF81000ADF80C00ADF81200ADF8B5
:101950000E000120ADF806000020ADF80800ADF83B
:101960000A0001A9184800F0D1FE01A9164800F0AC
:1019700023FF01A9144800F07FFF01A9124800F0DD
:10198000D5FF0121104800F079FE00210E4800F03B
:1019900009FF00210C4800F061FF00210A4800F017
:1019A000BBFF0021084800F0FFFF0121064800F0BE
:1019B00077FE0121044800F07FFE09B000BD000061
:1019C00000080140E0000020002C014070B50646F0
:1019D000002400251FE01348006840F04000114932
:1019E0000860012002F04AF86006040E0D4808382D
:1019F000006800F0800008B144F001040948001DAF
:101A0000006840F040000749091D0860022002F00C
:101A100035F8681CC5B2082DDDDB3046FFF75CFCED
:101A2000204670BD100C014070B5044600252CE026
:101A30002248006840F0400020490860012002F080
:101A40001DF804F0800040B11C48001F006840F001
:101A500080001A49091F086005E01848006840F036
:101A60008000164908606006040E012002F006F8A6
:101A70001248001F006840F040001049091F08602C
:101A8000022001F0FBFF681CC5B2082DD0DB0B481B
:101A9000006840F0400009490860012001F0EEFFB5
:101AA0000648001F006840F080000449091F0860D4
:101AB000012001F0E3FFFFF7C1FB70BD140C0140F2
:101AC0002DE9F0410646884614461D46FFF748FCBE
:101AD000002141EA4601C8B2FFF7A6FF0746012FE1
:101AE00026D14046FFF7A0FF0746012F20D1FFF780
:101AF00037FC012101EB4601C8B2FFF795FF07460D
:101B0000012F15D10DE0012C04D10020FFF75EFF5D
:101B1000287003E00120FFF759FF2870601EC4B24F
:101B20006D1C002CEFD1FFF753FC0020BDE8F081C5
:101B3000FFF74EFC0120F9E72DE9F04706460F4676
:101B400090469946FFF70CFC002141EA4601C8B2D5
:101B5000FFF76AFF0546012D1AD13846FFF764FFEB
:101B60000546012D14D100240CE019F80400FFF7FC
:101B70005BFF054625B9FFF72BFC0120BDE8F08788
:101B8000601CC4B24445F0DBFFF722FC0020F5E7FF
:101B9000FFF71EFC0120F1E70EB500F04FFA01211E
:101BA0000D2000F073F91020ADF808008DF80B003F
:101BB00003208DF80A0002A93148FFF781FA0120BD
:101BC000ADF8080048208DF80B0002A92D48FFF75A
:101BD00077FA012000908DF8060000208DF80400AF
:101BE0000C208DF805006846FFF700FA002101205F
:101BF000FFF746FA0620012181404209920002F1D6
:101C0000E022C2F8001100BF1D481430006840F007
:101C100010001B49143108600321232000F012FB3F
:101C200005221949302000F0E5FA052217492A203B
:101C300000F0E0FA1A21242000F004FB0121212009
:101C400000F000FB0121222000F0FCFA07212620F1
:101C500000F0F8FA3C21252000F0F4FA0C213120A4
:101C600000F0F0FA0F21202000F0ECFA04481030C8
:101C7000006840F010000249103108600EBD0000FD
:101C800000080140000C0140100000201500002059
:101C900010B51B48006840F0100019490860072083
:101CA00000F08CFA174908700846007800F0200010
:101CB00010B100F065F921E01248007800F0400012
:101CC00080B100F023F81048007800F0010020B146
:101CD0004FF48070FFF734FD10E04FF48070FFF791
:101CE0007FFD0BE00748007800F0100030B100F0F5
:101CF00047F904480178272000F0A4FA10BD00003D
:101D0000140801401A000020FC00002010B50D4806
:101D1000006840F010000B4908600C220A4961205D
:101D200000F024FA09480178272000F08BFA00F02F
:101D3000CBFF0448001F006840F010000149091F54
:101D4000086010BD14080140380100201A0000206E
:101D5000F0B503460C4603F00701C1F10700042863
:101D600001D9042001E0C1F107000646081D07283B
:101D700001D2002000E0C81E05460120B040401EF0
:101D80002040A8400127AF407F1E17403843F0BDD8
:101D900010B5002211460520FFF7DAFF0446214660
:101DA0004FF0FF3000F020F8002201210520FFF75E
:101DB000CFFF04462146282000F016F801221146E4
:101DC0000520FFF7C5FF04462146062000F00CF869
:101DD000002201210520FFF7BBFF044621461C20FD
:101DE00000F002F810BD000010B5002807DA0A075D
:101DF000140E054A00F00F031B1FD45403E00A071A
:101E0000130E024A135410BD18ED00E000E400E088
:101E100010B5104A1168104A1068FEF725FA0F49EC
:101E200008600C4A51680C4A5068FEF71DFA0C49CC
:101E300008600A4801680B480068FEF71BFA06496B
:101E400008610748016808480068FEF713FA02496C
:101E5000C86010BD1C0100200801002034000020D3
:101E600038000020300000202C00002029B1064A54
:101E7000D2690243044BDA6104E0034AD269824327
:101E8000014BDA61704700000010024029B1064A98
:101E900092690243044B9A6104E0034A92698243C7
:101EA000014B9A61704700000010024030B50021DC
:101EB0000022002400232D4D6D6805F00C0121B196
:101EC000042905D0082923D105E0294D056022E029
:101ED000274D05601FE0254D6D6805F47012234DF8
:101EE0006D6805F48034022505EB92421CB9214D42
:101EF000554305600BE01D4D6D6805F400351DB1BF
:101F00001C4D5543056002E0194D5543056002E044
:101F1000174D056000BF00BF144D6D6805F0F0015E
:101F20000909154D6B5C0568DD4045600F4D6D6816
:101F300005F4E061090A104D6B5C4568DD40856081
:101F40000A4D6D6805F46051C90A0B4D6B5C45681C
:101F5000DD40C560054D6D6805F44041890B074DB6
:101F60006B5CC568B5FBF3F5056130BD0010024040
:101F700000127A0000093D00CB000020DB000020A9
:101F800010B50B48006840F01000094908600F21A7
:101F9000202000F057F97E21272000F053F9044853
:101FA000001F006840F010000149091F086010BDC3
:101FB000140801402DE9F041144A9168144A9068D0
:101FC000FEF752F9134908600A4651681068FEF797
:101FD0004BF90746104801683846FEF74BF90546AD
:101FE0000C4801680D480068FEF744F9064629468A
:101FF000FEF7E8F80446FEF754FB00B20849888073
:102000000448006803494860BDE8F0811C010020D5
:1020100008010020700000206C00002068000020F3
:102020000000002021B1028842F04002028004E05A
:1020300002884FF6BF731A400280704700B587B020
:1020400001210C20FFF722FF03208DF80600E0207D
:10205000ADF8040018208DF8070001A91C48FFF70F
:102060002FF80220ADF8040010208DF8070003209F
:102070008DF8060001A91748FFF722F8012108038F
:10208000FFF704FF0020ADF808004FF48270ADF8B0
:102090000A000020ADF80C00ADF80E00ADF81000FD
:1020A0004FF40070ADF812000820ADF814000020C5
:1020B000ADF816000720ADF8180002A9064800F098
:1020C0001BF801210448FFF7ADFF07B000BD000079
:1020D00000080140000C0140003001400246002091
:1020E00013890B400BB1012000E00020704701462E
:1020F000888970478181704710B50022028802F4F8
:1021000041520B884C8823438C882343CC8823433B
:102110000C8923434C8923438C892343CC89234353
:102120001A430280838B4FF2FF74234083830B8A10
:10213000038210BD10B5044600BF02210A48FFF714
:10214000CDFF0028F9D021460748FFF7D3FF00BF95
:1021500001210548FFF7C2FF0028F9D00248FFF728
:10216000C6FFC0B210BD00000030014070B5064689
:102170000C4615460F48006840F002000D49086003
:102180003046FFF7D7FF0C49087006E00020FFF744
:10219000D1FF2070641C681EC5B2002DF6D1054821
:1021A000001F006840F002000249091F0860024851
:1021B000007870BD140C01400F00002070B504467B
:1021C0000B48006840F00200094908602046FFF70C
:1021D000B1FF0020FFF7AEFF05460548001F00686D
:1021E00040F002000249091F0860284670BD000047
:1021F000140C014070B506460C4615460F480068A1
:1022000040F002000D4908603046FFF793FF0C498B
:10221000087005E02078FFF78DFF641C681EC5B2CA
:10222000002DF7D10548001F006840F00200034967
:10223000091F08600248007870BD0000140C0140BE
:102240000F00002070B505460C460C48006840F0B1
:1022500002000A4908602846FFF76CFF0849087029
:102260002046FFF767FF0548001F006840F00200A6
:102270000249091F08600248007870BD140C014033
:102280000F000020012080F3138800BF00BF00BFB3
:1022900000BF00BF00BFBFF34F8F00BF00BF00BF34
:1022A0000948006800F4E06008490843001D064939
:1022B000086000BF00BF00BFBFF34F8F00BF00BF6B
:1022C00000BF00E000BFFDE70CED00E00000FA05F4
:1022D00001280BD1134A928842F00202114B9A80D6
:1022E0001A46928842F001029A800AE00D4A9288CA
:1022F00022F002020B4B9A801A46928822F00102C9
:102300009A80012906D1074A928842F00402054BBF
:102310009A8005E0034A928822F00402014B9A80D9
:10232000704700009401002010B500F001F810BDC6
:102330000CB50020019000903348006840F48030D4
:102340003149086000BF3048006800F40030009058
:102350000198401C0190009818B90198B0F5A06F41
:10236000F1D12948006800F4003010B1012000903C
:1023700001E0002000900098012843D12348006824
:1023800040F01000214908600846006820F0030072
:1023900008600846006840F0020008601A4840687B
:1023A000194948600846406848600846406840F45B
:1023B000806048600846406820F47C104860084609
:1023C000406840F4E81048600846006840F08070BB
:1023D000086000BF0C48006800F000700028F9D0C9
:1023E0000948406820F003000749486008464068F3
:1023F00040F00200486000BF0348406800F00C0055
:102400000828F9D10CBD0000001002400020024055
:1024100010B5374840883749098808443549498804
:10242000401A34498988084400B23349088030484A
:1024300040883049098808442E49498808442D4974
:102440008988401A00B22C49488029484088294987
:102450000988401A27494988084426498988084438
:1024600000B2254988802248408822490988401ABC
:1024700020494988401A1F498988401A00B21E49DC
:10248000C88000241CE01C4830F914001B49B1F935
:102490000010884206DB1948B0F90000164921F8FF
:1024A00014000BE0144830F914001549B1F900107C
:1024B000884203DC0120104921F81400601CC4B2DA
:1024C000042CE0DB0C49098888B2FFF7DFF90A49E0
:1024D000498888B2FFF7E4F90749898888B2FFF78D
:1024E000E9F90549C98888B2FFF7EEF910BD000087
:1024F000FC000020000000201C00002078000020CC
:102500007A0000200448006820B103480068401E9B
:102510000149086070470000080000200948006871
:102520000949B0FBF1F0401E4FF0E0214861002066
:102530008861062008610846006920F001000861F2
:1025400070470000E000002040420F0010B5134823
:10255000006840F0010011490860084640681049D1
:1025600008400E494860084600680E4908400B497B
:1025700008600846006820F480200860084640682B
:1025800020F4FE0048604FF41F008860FFF7CCFE87
:102590004FF000600449086010BD000000100240C8
:1025A0000000FFF8FFFFF6FE08ED00E010B5012186
:1025B000880700F090F801280AD10648008820F02A
:1025C0000100401C034908800121880700F065F8DC
:1025D00010BD00000600002010B50221244800F0C4
:1025E0007AF8012808D140F2FF10FFF7A9F802217C
:1025F0001F4800F052F83AE001211D4800F06BF846
:10260000012834D140F2FF10FFF74AF8194800883A
:102610000A2806DA0A20174908800020164908709F
:102620000BE01448008842F20671884205DD084636
:10263000104908800120104908700F48007848B9F7
:102640000C4801880088401C0A4B1880084800F09C
:10265000B8F908E0074801880088401E054B18803B
:10266000034800F0AEF90121014800F016F810BD52
:10267000000400400C0000200E00002021B1028860
:1026800042F08002028004E002884FF67F731A4015
:1026900002807047CA4302827047CA430282704771
:1026A00021B1028842F00102028004E002884FF664
:1026B000FE731A400280704731B1B0F8442042F4F2
:1026C0000042A0F8442005E0B0F84420C2F30E0216
:1026D000A0F84420704730B50246002000230024B3
:1026E000158A05EA0103958905EA010413B10CB1C5
:1026F000012000E0002030BD1AB183890B438381A3
:1027000002E083898B4383817047000070B5002409
:1027100000220023058C4FF6FE7635400584028C9E
:102720008388048B4FF68F752C40B51E2C400D8886
:102730002C43751E2A400D892A434D882A43144D87
:10274000A8420BD0134DA84208D0134DA84205D083
:10275000124DA84202D0124DA84213D14FF6F77580
:102760002A404D892A434FF6FB752A408D882A431B
:102770004FF6FF652B404FF6FF552B408D892B43BD
:10278000CD892B4383800483CD888586028470BDE8
:10279000002C014000340140004001400044014051
:1027A000004801400A460021018B4FF6F77319409B
:1027B000114301837047000070B5002400220023FC
:1027C000058C4FF6EF7635400584028C8388048BA8
:1027D00048F6FF752C404FF6FF452C400D884FF60C
:1027E000FF7606EA05252C434FF6DF752A400D8952
:1027F00006EA05152A434D8806EA05152A43154DB4
:10280000A84202D0144DA8421DD14FF67F752A4030
:102810004D894FF6FF7606EA05152A434FF6BF7538
:102820002A408D8806EA05152A434FF6FF352B40CE
:102830004FF2FF752B408D8906EA85052B43CD8924
:1028400006EA85052B4383800483CD8805870284AF
:1028500070BD0000002C0140003401400A460021F8
:10286000018B4FF2FF7319404FF6FF7303EA022307
:10287000194301837047000070B500240022002333
:10288000058C4FF6FF6635400584028C8388848B67
:102890004FF68F752C404FF6FC752C400D882C435D
:1028A0004FF6FF552A400D894FF6FF7606EA0525BB
:1028B0002A434D8806EA05252A43154DA84202D031
:1028C000144DA8421DD14FF2FF752A404D894FF695
:1028D000FF7606EA05252A434FF6FF352A408D8804
:1028E00006EA05252A434EF6FF752B404DF6FF7587
:1028F0002B408D8906EA05152B43CD8906EA05157F
:102900002B4383808483CD888587028470BD00003B
:10291000002C0140003401400A460021818B4FF613
:10292000F7731940114381837047000070B500228E
:1029300000230024058C4EF6FF7635400584038C79
:102940008488828B48F6FF752A404FF6FF452A405F
:102950000D884FF6FF7606EA05252A434DF6FF75EA
:102960002B400D8906EA05352B434D8806EA0535CF
:102970002B430B4DA84202D00A4DA84208D14BF67A
:10298000FF752C408D894FF6FF7606EA85152C439E
:1029900084808283CD88A0F84050038470BD0000FD
:1029A000002C0140003401400A460021818B4FF287
:1029B000FF7319404FF6FF7303EA02231943818323
:1029C0007047818670470187704781877047A0F8FC
:1029D00040107047002202881D4B98420ED01D4BBC
:1029E00098420BD0B0F1804F08D01B4B984205D0D5
:1029F0001A4B984202D01A4B984204D14FF68F736B
:102A00001A404B881A43174B984207D0164B9842EE
:102A100004D04FF6FF431A40CB881A4302808B88BC
:102A200083850B8803850A4B98420BD0094B98424B
:102A300008D00E4B984205D00D4B984202D00D4B5A
:102A4000984201D10B7A03860123838270470000EC
:102A5000002C014000340140000400400008004008
:102A6000000C0040001000400014004000400140F5
:102A7000004401400048014070B51848807A174969
:102A8000C97A88421FD115494988A1F2E240FDF771
:102A9000F7FD04460022124BFDF77AFE06D80F48D8
:102AA0004088A0F548700D49488003E040F2E240BC
:102AB0000A4948800F2009490881C8804FF4807076
:102AC000FEF7EEFD03E00548C07A04498872054828
:102AD000008820F001000349088070BDFC00002040
:102AE000000089400600002010B5FFF7D1F8034828
:102AF000008820F004000149088010BD0600002075
:102B000010B5FEF76DFBFEF72FFAFFF781F9FEF720
:102B10008BFCFFF74FFAFEF7EBF9FFF779FC034860
:102B2000008820F002000149088010BD0600002046
:102B300021B1828942F40052828104E082894DF6FB
:102B4000FF731A408281704700B585B001210820CB
:102B5000FFF79CF901218804FFF788F94FF48060A2
:102B6000ADF8100018208DF8130003208DF8120026
:102B700004A91448FEF7A4FA4FF40060ADF8100061
:102B800004208DF8130004A90E48FEF799FA4FF4BB
:102B9000E13000900020ADF80C000C20ADF80A00E8
:102BA0000020ADF80800ADF80600ADF80400694655
:102BB000054800F019F801210348FFF7B9FF05B0F7
:102BC00000BD0000000C014000480040024600200B
:102BD000B1F5007F00D100BF13880B400BB101207D
:102BE00000E00020704700002DE9F04786B0054660
:102BF0000E460024A24600BFA1460027B08900B1BE
:102C000000BF2F462C8A4CF6FF700440F088044326
:102C10002C82AC894EF6F3100440B0883189084309
:102C2000718908430443AC81AC8A4FF6FF400440ED
:102C3000B0890443AC8201A8FFF738F91F488742E6
:102C400002D1DDF810A001E0DDF80CA0A88900F4A5
:102C5000004040B10AEBCA0000EB0A10316849009D
:102C6000B0FBF1F807E00AEBCA0000EB0A1031688C
:102C70008900B0FBF1F86420B8FBF0F004012009F2
:102C8000642101FB1089A88900F4004040B1322082
:102C900000EBC900B0FBF1F000F00700044308E0CE
:102CA000322000EB09106421B0FBF1F000F00F00BE
:102CB00004432C8106B0BDE8F087000000380140D5
:102CC000C1F30802828070471848C07AA52800D056
:102CD00070471648007800F00100C0B11348007931
:102CE0001249497940EA0120114948800F4880790A
:102CF0000E49C97940EA01200D4908810B48007A44
:102D00000A49497A40EA01200949C88008E0074891
:102D1000007800F0080018B10448407804490870B1
:102D20000248807A0249C87200BFD1E7380100200A
:102D3000FC00002010B513E00D48006840F0400092
:102D40000B490860032000F099FE0948001F006845
:102D500040F040000649091F0860032000F08EFE85
:102D600003480C38006800F080000028E4D010BD53
:102D7000140C01400FB4054B10B503A9044A029886
:102D800000F09AF810BC5DF814FB0000114A00082E
:102D9000F4000020490050EAC12018BF04204A0D69
:102DA00018BF40F0010040F2FF72B2EB515F08BF64
:102DB00040F00200012808BF052070472DE9F041CE
:102DC0004F1E00EBC7010446D1E9000115461E461F
:102DD00037F006020DD02A463346FDF762FB7F1E10
:102DE00004EBC703D3E90023FDF7B4FA37F006027A
:102DF000F1D1022F25D0042F13D0062F18BFBDE824
:102E0000F0812A463346FDF74CFBD4E90A23FDF74F
:102E1000A1FA2A463346FDF744FBD4E90823FDF71F
:102E200099FA2A463346FDF73CFBD4E90623FDF721
:102E300091FA2A463346FDF734FBD4E90423FDF723
:102E400089FA2A463346FDF72CFBD4E90223FDF725
:102E500081FA2A463346FDF724FBD4E90023BDE876
:102E6000F041FDF777BA0122FDF7D0BDFDF772BA48
:102E70000022134610461146FDF785BB024A00208A
:102E80001107FDF7C3BD000001FDFFFF02E008C808
:102E9000121F08C1002AFAD170477047002001E0D4
:102EA00001C1121F002AFBD17047000001490860D0
:102EB00070470000F80000202DE9FF4F8DB00F464D
:102EC0000546002606E025280BD0DDE90F129047C5
:102ED0006D1C761C28780028F5D111B03046BDE86D
:102EE000F08F0024A246A1460122EC4900E00443F1
:102EF00015F8013F203B02FA03F00842F7D1287889
:102F00002A2810D06FF02F022878A0F1300109296B
:102F100014D80AEB8A0102EB410144F0020400EBF1
:102F2000010A6D1CF0E701CF5FEA000A03D544F403
:102F30000054CAF1000A44F002046D1C28782E28BF
:102F400017D115F8010F44F004042A280ED06FF0B1
:102F50002F022878A0F1300109290AD809EB89014C
:102F600002EB410100EB01096D1CF2E757F8049BED
:102F70006D1C28786C280FD006DC4C2817D06828E8
:102F80000DD06A2814D104E0742810D07A280FD10B
:102F90000DE044F400140AE044F4801401E044F429
:102FA00040146978814202D104F580146D1C6D1CB7
:102FB0002A786E2A1FD00CDC632A31D004DC002A68
:102FC0008BD0582A11D1A3E0642A68D0692A0CD189
:102FD00065E0732A2ED004DC6F2A73D0702A04D1E6
:102FE0009BE0752A6FD0782A6ED01046DDE90F126B
:102FF0009047761C50E1C4F30250022806D0032803
:1030000009D0042801CF09D0066045E101CFF117AE
:10301000C0E9006140E101CF06803DE106703BE17F
:1030200017F8040B8DF8000000208DF80100EB4626
:10303000012003E057F804BB4FF0FF3061074FF069
:10304000000102D40DE008F10101884649450FDA7C
:103050008045F8DB1BF808100029F4D108E008F1DE
:10306000010188468142FADB1BF808100029F6D1DD
:10307000DDE90F23AAEB08008146214600F036F96E
:10308000304400EB080604E0DDE90F121BF8010BE9
:103090009047B8F10108F7D221464846F7E00A21E7
:1030A000C4F302534FF0000B0891022B04D001CF60
:1030B000C117032B09D00AE0FF1D27F00707F7E827
:1030C000020108E032E01FE020E000B2C117042B4B
:1030D00001D140B2C117031E71F1000307DA4FF0AE
:1030E000000CD0EB0C006CEB01012D2302E023055A
:1030F00004D52B238DF82430012303E0E30701D00E
:103100002023F7E7984658E00A2110E010210EE04E
:1031100010204FF0000B08900CE010214FF0000B36
:1031200044F004044FF00809089103E008214FF02F
:10313000000B0891C4F30253022B04D001CF0021ED
:10314000032B06D006E0FF1D27F00707F7E8020172
:1031500003E080B2042B00D1C0B24FF00008230777
:103160002BD5702A07D0DDF820C08CF0100C5CEA5B
:103170000B0C05D00EE040238DF82430012308E02D
:1031800050EA010306D030238DF824308DF8252035
:1031900002239846DDF820C08CF0080C5CEA0B0C8A
:1031A0000BD150EA010301D1630706D530238DF816
:1031B00024304FF00108A9F10109582A04D038A29F
:1031C0000B9208AA0A920BE03AA2F9E75B46089A2A
:1031D000FDF726FB0B9B9B5C0A9A521E0A9213700A
:1031E00050EA0102F2D10A98ADEB000000F1200B89
:1031F000600702D524F4803401E04FF00109D9457D
:1032000002DDA9EB0B0000E0002000EB0B014144C4
:103210000890AAEB010AE00306D4DDE90F2321465A
:10322000504600F063F806444FF0000908E009A991
:1032300011F80900DDE90F12904709F10109761C28
:10324000C145F4DBE0030CD5DDE90F2321465046F0
:1032500000F04CF8064404E0DDE90F1230209047FE
:10326000761C0899481E08900029F5DC08E00A98A9
:103270000A990078491C0A91DDE90F129047761CE3
:10328000BBF10001ABF1010BF1DC21465046DDE959
:103290000F2300F019F806446D1C1BE609280100F5
:1032A00030313233343536373839616263646566BC
:1032B000000000003031323334353637383941427E
:1032C00043444546000000002DE9F0410446002536
:1032D0001E461746880404D405E039462020B0472E
:1032E0006D1C641EF9D52846BDE8F0812DE9F0413A
:1032F000044600251E469046C80301D5302700E04D
:103300002027880404D505E041463846B0476D1CA7
:10331000641EF9D52846BDE8F08100002DE9FE4F76
:1033200006460F460025684601F084FB002442E073
:1033300056F8240057F82410A0EB010ABAF1000F48
:1033400001DB514601E0CAF100010846FDF78AF9A8
:1033500083464FF08F41FCF7BFFF80465DF82400A5
:103360000021FDF749FA16D05DF824104046FCF71D
:10337000B3FF82464FF07E51FCF776FF814629F07D
:10338000004A0F48416A5046FDF740FA12D2012028
:10339000A04005430EE00A48C1694046FDF72CFAFB
:1033A00005D30748016A4046FDF730FA02D20120F2
:1033B000A0400543641C032CBADB2846BDE8FE8F01
:1033C0002C6500082DE9F04D8D4F21F0004A86B0A4
:1033D00005460C46BA452ADBAAEB070028430AD06B
:1033E0008848824501DC1AD1CDB106B02846BDE837
:1033F000F04DFFF738BD844A844B2846FDF751F85D
:1034000007460E46824A834B28462146FDF749F877
:1034100006B03A463346BDE8F04DFCF79BBF0120AD
:10342000FFF744FD06B0BDE8F04DFFF721BD7A4837
:10343000824542DABAF1795F0BDA2846FFF7AAFC37
:10344000042808BFFFF71AFD284606B02146BDE84C
:10345000F08D2A460B461046FDF723F883460246B8
:103460006E480E460B4606217844FFF7A7FC5A46E5
:103470003346FDF716F8804669488A465A46334671
:1034800004217844FFF79AFC5A463346FDF709F8C1
:1034900000223B46FCF75EFF02460B464046514683
:1034A000FDF771F82A462346FCF7FBFF06B02A46D3
:1034B0002346BDE8F04DFCF74DBF284624F00041FF
:1034C00000223D463B46FCF7E9FF4FF0FF32FDF797
:1034D0009DFA0646024653480F460B46062178449D
:1034E000FFF76CFC32463B46FCF7DBFFCDE9000101
:1034F0004D4832463B4604217844FFF75FFC324694
:103500003B46FCF7CEFF00222B46FCF723FF834609
:1035100002913046394602F0CFFF804643480D46BF
:10352000504517DCDDE900015A46029BFDF72BF8F8
:1035300042462B46FCF7B5FF42462B46FCF70AFFF6
:103540000122FDF763FA304A304BFCF7A4FF304A02
:10355000304B4CE04FF0000A52460B464046FCF719
:10356000F9FECDE9031052462B4610461946FCF7EA
:1035700098FF32463B46FCF791FFDDE90332FDF749
:1035800002F806460F46DDE900015A46029BFCF7A9
:10359000FAFF83460091012230463946FDF736FA9C
:1035A000194A1A4BFCF77AFF06460F46012240469D
:1035B0002946FDF72BFA5A46009BFCF772FF32466C
:1035C0003B46FCF768FF06460F4601225046294657
:1035D000FDF71CFA0E4DDFF858802A464346FCF7EB
:1035E0005DFF32463B46FCF759FF2A464346FCF74F
:1035F00055FF002CD8BF81F0004106B0BDE8F08D2A
:103600000000F03F0000F07F075C143326A6913CD9
:10361000182D4454FB21F93F0000E03FE43C00003A
:10362000FA3C00006E3C0000843C00003333EF3F66
:10363000FB21E93F2DE9F84F04460D4621F00040FB
:1036400000917349814211DC7249884201DC06D144
:103650002CB120462946BDE8F84FFFF704BC6E4860
:10366000002DCCBF6D496E49BDE8F88F6D49814290
:1036700011DD6D498142D8BF4FF0FF366DDD204628
:103680002946FFF787FB042808BFFFF7F7FB204612
:103690002946BDE8F88F6549654F25F00045814210
:1036A00033DD6449814219DD002632464FF0804304
:1036B00020462946FCF74EFE80468A4601222046D7
:1036C0002946FDF7A3F900223B46FCF7E4FE4246FB
:1036D0005346FCF758FF04460D463EE00126002203
:1036E000BA463B4620462946FCF734FE80460F4644
:1036F0000022534620462946FCF7CDFE42463B4673
:10370000FCF741FF04460D4627E04B4981421BDD93
:10371000DFF828A102260022534620462946FCF75E
:10372000C0FE00223B46FCF715FE80460F460022F5
:10373000534620462946FCF7AEFE42463B46FCF780
:1037400022FF04460D4608E0032622462B460020B1
:103750003B49FCF718FF04460D4622462B4610460F
:103760001946FCF79EFE8B46824602460B46FCF746
:1037700098FE07460246334888460B4606217844A1
:10378000FFF71CFB52465B46FCF78BFE82462E4839
:103790008B463A46434605217844FFF70FFB3A46ED
:1037A0004346FCF77EFE02460B46002E5046594625
:1037B0000CDAFCF7CFFD22462B46FCF772FE01B077
:1037C00022462B46BDE8F04FFCF768BEFCF7C2FD71
:1037D00022462B46FCF765FE1C4A7A4402EBC603E0
:1037E000D3E90023FCF757FE22462B46FCF753FE95
:1037F000174A7A4402EBC603D3E90023FCF74EFED6
:10380000009A002AB8BF81F00041BDE8F88F00009F
:10381000000010440000F07F182D4454FB21F93FB4
:10382000FB21F9BF0000DC3F0000203E0000F33F19
:103830000000F03F0000E63F008003400000F83F3A
:103840000000F0BF863A0000443A0000E239000070
:10385000AA3900002DE9F04D9446CCF1000423F084
:1038600000464CEA0404524F46EAD4749A4688460D
:1038700021F00042BC4206D8454240EA050442EA33
:10388000D474BC4204D9BDE8F04D6246FFF7EEBAED
:10389000AAF14055A5F17F6555EA0C040BD002242E
:1038A00004EAAA74434DDFF810E144EAD87452EAFE
:1038B000000B04D00CE0BDE8F04DFFF7BBBE002CC0
:1038C00014BF012CBDE8F08D022C30D0032C32D077
:1038D00056EA0C0B0AD0BE4220D1BA4209D126F0DA
:1038E000804622F080423346114617E000291ADB59
:1038F00025E0DFF8C8B0FB44002C04BFDBE9000181
:10390000BDE8F08D012C02BFDBE9000181F0004130
:10391000BDE8F08D022C0AD0032C0CD0BA4212D193
:10392000B8F1000F0BDA23482549BDE8F08D284691
:103930002449BDE8F08D28467146BDE8F08D1D484C
:103940002149BDE8F08D921B12153C2AC4BF1948CD
:103950001D490EDCBAF1000FBEBF12F13C0F002072
:10396000014606DB6246FCF70EFE21F00041FFF740
:1039700061FE002C08BFBDE8F08D012C04BF81F072
:103980000041BDE8F08D114A114B022C07D0FCF725
:1039900082FD2A46BDE8F04D0A4BFCF77CBDFCF7E2
:1039A0007AFD2A46BDE8F04D064BFCF777BD0000D6
:1039B0000000F07F182D4454FB2109C03E3900005F
:1039C000FB21F9BFFB210940FB21F93F075C1433C0
:1039D00026A6A13C2DE9F0410446E07800F0C0069F
:1039E000E07800F03F05607800F0010098B1EF103A
:1039F0002846E91705EB5171C910A5EBC101491C17
:103A000001F0FF080B48006820B10A4841460268EF
:103A10003846904700BF607800F0080030B1054894
:103A2000406818B1B011034A516888470020BDE8CA
:103A3000F08100004401002000B970474FF47A7112
:103A400041430D4A116000214FF0E022916111467F
:103A5000096941F00101116100BF074909680029A6
:103A6000FBD14FF0E021096921F001014FF0E02284
:103A7000116100BFE1E700000800002000B97047B5
:103A80000C49086000214FF0E0229161114609695C
:103A900041F00101116100BF064909680029FBD10D
:103AA0004FF0E021096921F001014FF0E02211619E
:103AB00000BFE4E70800002038B5044664B12020C8
:103AC0008DF8000028208DF8010030208DF80200CC
:103AD00038208DF8030004E0A32204216846FCF797
:103AE00052FB6A46042140F69E2002F015FC01F0CC
:103AF000FFFF38BD3EB5044602208DF80000CA2005
:103B00008DF80100E3208DF8020009208DF80300F4
:103B10006A460421682002F0FFFBA3208DF8000014
:103B200004F0400048B1C0208DF80100C8208DF895
:103B30000200C2208DF8030006E0A3208DF80100EA
:103B40008DF802008DF8030004F4C07048B1C42061
:103B50008DF80400CC208DF80500C6208DF80600F5
:103B600006E0A3208DF804008DF805008DF806000E
:103B7000A3208DF807008DF808008DF809006A462B
:103B80000A2140F6A72002F0C7FB04F0030018B199
:103B900020208DF8000002E0D8208DF800006A4651
:103BA000012140F6B62002F0B7FB04F0200018B166
:103BB000012000F0ADF802E0002000F0A9F804F4C4
:103BC000C07008B304F4807060B1B2208DF80000BA
:103BD0008B208DF80100B6208DF802009B208DF817
:103BE00003000BE0B0208DF8000080208DF801006C
:103BF000B4208DF8020090208DF803006A4604215D
:103C000040F6A22002F088FB04F0010020B3F82067
:103C10008DF800006A4601214FF40B6002F07CFB36
:103C2000FA21072000F0FEFD072000F0C5FD01206D
:103C300000F0E5FD642000F0C5FE4FF4FA7000F0DE
:103C4000D4FEC821304800F075FD282000F08EFD1C
:103C50000A2000F09EFD08E0D8208DF800006A469A
:103C600001214FF40B6002F057FB04F0020018B181
:103C7000D9208DF8000002E0D8208DF800006A46B7
:103C8000012140F23D7002F047FB04F0040018B13E
:103C9000012000F069F802E0002000F065F804F06F
:103CA000100018B10120FFF707FF02E00020FFF726
:103CB00003FF44F008001549488101F019FF002076
:103CC0001249887304F0400018B10846807B801DBB
:103CD000887304F4C07020B10C48807B801D0B49B0
:103CE000887304F0140020B10848807B1030074925
:103CF000887304F0030020B10448807B001D034951
:103D0000887300203EBD000009E3CA024401002080
:103D10003EB504466CB10EA1D1E900208968CDE919
:103D2000002002916A4609214FF4976002F0F4FAEC
:103D30003EBD0AA2D2E900109268CDE901020091CD
:103D40006A4609214FF4976002F0E6FAF0E70000B6
:103D5000B8AAB38DB4980D355D000000B8AAAAAA20
:103D6000B088C3C5C700000038B5044664B1C020A0
:103D70008DF80000C2208DF80100C4208DF80200EB
:103D8000C6208DF8030004E08B2204216846FCF76E
:103D9000FAF96A46042140F6982002F0BDFA01F0D3
:103DA000A7FE38BD2DE9F04F89B0DB48C078002868
:103DB0007ED0D94840780028FAD0D848D849D94B85
:103DC000D94ACDE90010D949881F00F0C9F918B1C6
:103DD000012009B0BDE8F08FD048007810B900206C
:103DE000CD49C870CE48007800F0700048B3CA488A
:103DF000007900F0020020B3C948007800F0080004
:103E0000F8B1C548007900F00100D0B1002002905F
:103E1000039004900590C548801FB0F90400C34981
:103E2000891FB1F90210C14CA41FCDE90010B4F9EB
:103E30000030B4F90A20B4F90810B4F90600FCF710
:103E400079FEB748008800F4807000287ED0B6491B
:103E50000868FCF707FC04464FF09D41FCF73CFA6C
:103E6000B3490860B0494868FCF7FCFB04464FF0D2
:103E70009D41FCF731FAAF490860AB498868FCF70F
:103E8000F1FB04464FF09D41FCF726FAAA49086071
:103E9000A549C868FCF7E6FB04464FF09D41FCF7D6
:103EA0001BFAA6490860A24801684FF0804000E074
:103EB000E6E0FCF7DFF907909F4801680798FCF7F8
:103EC000D9F982469B4801684FF04040FCF7D2F98F
:103ED00007909A4801680798FCF7CCF98346514649
:103EE000FCF770F90890FCF728FC8046FFF76AFAA7
:103EF00006464FF06632924BFCF7D3FA0446FCF7C5
:103F00005FFC904908608C4801684FF08040FCF7E6
:103F1000B1F90390884801680398FCF7ABF9824631
:103F2000844801684FF04040FCF7A4F903908148B1
:103F300001680398FCF79EF983465146FCF794F913
:103F400081464FF07E51FCF73DF900E096E00446D3
:103F5000FCF7F3FBCDE90601754801684FF080409E
:103F6000FCF788F98346734801685846FCF782F9E4
:103F70008146714801684FF08040FCF77BF9834629
:103F80006E4801685846FCF775F982464946FCF7C9
:103F900019F90446FCF7D1FBCDE90401DDE906235C
:103FA000FFF758FC07464FF06632654BFCF779FA8D
:103FB0000546FCF705FC63494860604801680068F5
:103FC000FCF758F905905C4801680068FCF752F965
:103FD0000490584801680068FCF74CF90290544876
:103FE00001680068FCF746F901900299FCF7EAF8CD
:103FF00003900499FCF738F983460599FCF734F9E6
:104000008246FCF79AFB804689464C48016848483E
:104010000068FCF72FF9059047480168454800689B
:10402000FCF728F904900599FCF7CCF883464FF08B
:104030008041FCF71FF98246FCF77FFB42464B4666
:10404000CDE90601FFF706FC06464FF066323C4B11
:10405000FCF727FA0446FCF7B3FB3A4988602E4880
:10406000007900F0040048B1002000900B46019058
:104070009A68196858680023FCF71AFE0020A8E621
:104080002548C078F0B307A808AB264A2749009016
:10409000881F01F091FB08B101209AE69DF81C00F1
:1040A00010B900201C49C8709DF8200000F0700075
:1040B00048B31948007900F0020020B39DF82000B1
:1040C00000F00800F8B11448007900F00100D0B108
:1040D000002002900390049005901448801FB0F9CE
:1040E00004001249891FB1F90210104CA41FCDE938
:1040F0000010B4F90030B4F90A20B4F90810B4F98A
:10410000060001E004E001E0FCF714FD002060E699
:1041100000BF01205DE6000094010020CA000020DD
:10412000C8000020C4000020A401002032010020AB
:10413000B4000020B8000020BC000020C000002017
:1041400066A64C401C01002010B5C8234FF48062C5
:10415000024940F6F63001F063FA10BD54650008DC
:104160002DE9F04F8DB00746884615469946DDE9A2
:10417000166B0024002030806B49887B5A4605A9C5
:1041800001F016FC18B1601E0DB0BDE8F08F664856
:10419000807A00F01400002867D09DF81400000613
:1041A0009DF8151040EA01409DF8161040EA0120E4
:1041B0009DF81710084328609DF8180000069DF828
:1041C000191040EA01409DF81A1040EA01209DF8BC
:1041D0001B10084368609DF81C0000069DF81D1028
:1041E00040EA01409DF81E1040EA01209DF81F1092
:1041F0000843A8609DF8200000069DF8211040EAC1
:1042000001409DF8221040EA01209DF82310084348
:10421000E86004F11000C4B22868001401906868D6
:1042200000140290A86800140390E8680014049039
:1042300001984043029901FB0100039901FB010031
:10424000049901FB010ABAF1706F02DBBAF1885FD1
:1042500005DD01F04DFC00203080401E94E7B6F9EA
:10426000000040F48070308000BF2F48807A00F05A
:10427000400020B305A9601C085C095D40EA0120EC
:1042800000B2A8F8000005A9E01C095C05AAA01C62
:10429000105C41EA002000B2A8F8020005A9601DE8
:1042A000095C201D105C41EA002000B2A8F804005F
:1042B000A01DC4B2B6F9000040F0080030801A48D2
:1042C000408900F4C07008B305A9601C085C095D52
:1042D00040EA012000B2388005A9E01C095C05AA6B
:1042E000A01C105C41EA002000B2788005A9601D86
:1042F000095C201D105C41EA002000B2B880A01DBE
:10430000C4B2B6F9000040F0700030800648807AF0
:1043100000F0030018B105A90819FFF75BFB484638
:1043200000F0E2FB00202FE74401002070B588B0C8
:10433000064601A800F0C8FFBDF804000021C9032B
:1043400041EA5045C4034448007A00F0030056F89F
:10435000200005904048007A00F0040010B1059854
:10436000404205903C48007AC0F3C10056F8200056
:1043700006903948007A00F0200010B106984042BB
:1043800006903548007AC0F3811056F82000079057
:104390003148008900F4807010B1079840420790BE
:1043A0000598C117A0FB042301FB043100FB051095
:1043B000810041EA927005900698C117A0FB042382
:1043C00001FB043100FB0510810041EA9270069068
:1043D0000798C117A0FB042301FB043100FB051063
:1043E000810041EA927007900598000E8DF8080050
:1043F0000598000C8DF809000598000A8DF80A0050
:104400000598C0B28DF80B000698000E8DF80C00D0
:104410000698000C8DF80D000698000A8DF80E0025
:104420000698C0B28DF80F000798000E8DF81000A6
:104430000798000C8DF811000798000A8DF81200FB
:104440000798C0B28DF8130002AA0C214FF4257012
:1044500001F062FF08B070BD4401002030B585B0A6
:10446000044616A207CA02AB07C3C82C03DD4FF0EF
:10447000FF3005B030BDC82090FBF4F0401E85B27F
:10448000280A8DF80000E8B28DF801006A46022182
:1044900040F2162001F040FF10B14FF0FF30E8E786
:1044A00002AA0C2140F6C12001F036FF10B14FF0F6
:1044B000FF30DEE7044884810020DAE7FEF2ABC477
:1044C000AAF1DFDFBBAFDFDF440100201FB50446E8
:1044D0004848007A00F0030054F820000190454855
:1044E000007A00F0040010B1019840420190414868
:1044F000007AC0F3C10054F8200002903D48007AD1
:1045000000F0200010B10298404202903948007A31
:10451000C0F3811054F8200003903648008900F45D
:10452000807010B10398404203903349019880FB9A
:104530000101800F40EA810001902F49029880FB21
:104540000110820042EA917002902B49039880FB8F
:104550000110820042EA917003900198000E8DF8DC
:1045600000000198000C8DF801000198000A8DF8F8
:1045700002000198C0B28DF803006A4604214FF48E
:10458000747001F0C9FE18B14FF0FF3004B010BDD7
:104590000298000E8DF800000298000C8DF80100C2
:1045A0000298000A8DF802000298C0B28DF803004C
:1045B0006A4604214FF4757001F0AEFE10B14FF061
:1045C000FF30E3E70398000E8DF800000398000C1D
:1045D0008DF801000398000A8DF802000398C0B21C
:1045E0008DF803006A4604214FF4767001F094FEC2
:1045F000CCE700004401002009E3CA0210B586B0F0
:10460000044647A00068039046A00068029046A0B8
:104610000068019045A00068009004F0030003A921
:10462000085C8DF8140003A8C4F3C101405C8DF848
:10463000150003A8C4F38111405C8DF8160004F046
:10464000030002A9085C8DF8100002A8C4F3C101A0
:10465000405C8DF8110002A8C4F38111405C8DF814
:10466000120005AA032140F2264001F055FE18B1C0
:104670004FF0FF3006B010BD04AA032140F22A40DB
:1046800001F04AFE10B14FF0FF30F3E701980590BA
:104690000098049004F0040058B19DF8140040F014
:1046A00001008DF814009DF8100040F001008DF815
:1046B000100004F0200058B19DF8150040F00100F2
:1046C0008DF815009DF8110040F001008DF81100E3
:1046D00004F4807058B19DF8160040F001008DF888
:1046E00016009DF8120040F001008DF8120005AA96
:1046F00003214FF4886001F00FFE10B14FF0FF303E
:10470000B8E704AA032140F2314001F005FE10B1E0
:104710004FF0FF30AEE7064804810020AAE7000012
:104720004CCD6C000CC92C0036567600264666002F
:1047300044010020F8B505460E464FF47A7095FB0B
:10474000F0F000FB06F4200E8DF80000200C8DF830
:104750000100200A8DF80200E0B28DF803006A46DD
:1047600004214FF4AE7001F0D7FDF8BD38B5044612
:10477000052094FBF0F084B220128DF80000E0B226
:104780008DF801006A4602214FF4AD7001F0C4FDBE
:1047900038BD38B50446052094FBF0F084B22012F1
:1047A0008DF80000E0B28DF801006A4602214FF456
:1047B000AC7001F0B1FD38BD38B504460020009062
:1047C00004F0010020B19DF8000040F0300000909E
:1047D00004F0020020B19DF8000040F00C000090B1
:1047E00004F0040020B19DF8000040F003000090A8
:1047F0006A4601214FF4A47001F08EFD38BD38B532
:104800000446012C01DA012402E0042C00DD04241A
:10481000601EC0B200906A46012140F24F1001F0C4
:104820007BFD38BD2DE9FC4706460F4606F0070024
:1048300010B1B7F5C86F03DD4FF0FF30BDE8FC875E
:104840003846FBF718FF81465949FBF745FD80467E
:10485000684600F013FD9DF80000022806D00428E9
:1048600016D0082826D0102848D135E04FF08D41C9
:104870004046FBF7FFFC8146FBF72CFF84B24D4915
:104880004046FBF7F7FC8146FBF724FF85B238E092
:104890004FF08C414046FBF7EDFC8146FBF71AFFD9
:1048A00084B245494046FBF7E5FC8146FBF712FF21
:1048B00085B226E04FF08B414046FBF7DBFC81469A
:1048C000FBF708FF84B23D494046FBF7D3FC814625
:1048D000FBF700FF85B214E04FF08A414046FBF73A
:1048E000C9FC8146FBF7F6FE84B235494046FBF72A
:1048F000C1FC8146FBF7EEFE85B202E04FF0FF30CF
:104900009CE700BF20128DF80400E0B28DF805008E
:1049100028128DF80600E8B28DF8070006F00100B5
:10492000A0B101AA02214FF4EA7001F0F5FC10B128
:104930004FF0FF3082E70DF1060202214FF4927032
:1049400001F0EAFC10B14FF0FF3077E706F002000B
:10495000A0B101AA02214FF4EC7001F0DDFC10B10E
:104960004FF0FF306AE70DF1060202214FF4947018
:1049700001F0D2FC10B14FF0FF305FE706F0040009
:10498000A0B101AA02214FF4EE7001F0C5FC10B1F4
:104990004FF0FF3052E70DF1060202214FF49670FE
:1049A00001F0BAFC10B14FF0FF3047E7002045E7B7
:1049B00000004843000040460000C045000040455C
:1049C0000000C04438B50446052094FBF0F085B2E1
:1049D00028128DF80000E8B28DF801006A46022125
:1049E0004FF4EF7001F098FC38BD38B5044605204F
:1049F00094FBF0F085B228128DF80000E8B28DF833
:104A000001006A4602214FF4ED7001F085FC38BDCB
:104A100070B504460D46E1B20548FEF751F900BFF6
:104A200080210348FEF7D2F80028F9D0204670BD57
:104A3000004800407CB5054628494968087801AB24
:104A400004220D21FDF73CF808B107207CBD9DF83C
:104A50000700C0F301109DF8041001F0E00140EAE6
:104A6000E1008DF800009DF80700C0F381009DF87B
:104A7000051001F0E00140EAE1008DF801009DF829
:104A8000070000F003009DF8061001F0E00140EA85
:104A9000E1008DF8020000241CE01DF8040018B9A4
:104AA000002045F8240013E00D4845F8240006E0F6
:104AB00055F824000B49FBF7DDFB45F824001DF8F1
:104AC0000400401EC0B20DF804000028F0D100BF61
:104AD000601CC4B2032CE0DB0020B7E77C000020A0
:104AE0007B14AE3E1D5A843F704700002DE9F04F05
:104AF00087B005460C46914601208DF81000002035
:104B00008DF81100FE4A1268917CFD4A52681078B7
:104B100004AB0222FDF710F820B14FF0FF3007B0D0
:104B2000BDE8F08FC820FEF787FF00208DF8100049
:104B3000F34A1268D17BF24A5268107804AB012222
:104B4000FCF7FAFF10B14FF0FF30E8E7EC4A1268CB
:104B50005179EB4A5268107804AB0122FCF7ECFF64
:104B600010B14FF0FF30DAE7E54A1268917CE44A71
:104B70005268107804AB0122FCF7DEFF10B14FF051
:104B8000FF30CCE7DE4A1268D17DDD4A52681078EA
:104B900004AB0122FCF7D0FF10B14FF0FF30BEE7AD
:104BA000D74A12681179D64A5268107804AB0122AC
:104BB000FCF7C2FF10B14FF0FF30B0E70C208DF8CA
:104BC0001000CF4A12681179CD4A5268107804ABB0
:104BD0000122FCF7B1FF10B14FF0FF309FE70F202B
:104BE000FEF72AFFC648806A407A8DF81000C44A52
:104BF00012689178C24A5268107804AB0122FCF71F
:104C00009BFF10B14FF0FF3089E7BD48806A007A02
:104C10008DF81000BA4A12685178B94A5268107873
:104C200004AB0122FCF788FF10B14FF0FF3076E7AC
:104C3000B9F1000F07D0B248806A807A40F0E000F6
:104C40008DF8100004E0AE48806A807A8DF810007C
:104C5000AB4A12689179AA4A5268107804AB0122D3
:104C6000FCF76AFF10B14FF0FF3058E7B9F1000FC1
:104C700007D0A348806AC07A40F0E0008DF81000A9
:104C800003E0A048C07A8DF810009D4A1268D179DF
:104C90009B4A5268107804AB0122FCF74DFF10B11B
:104CA0004FF0FF303BE7B9F1000F02D0C820FEF70C
:104CB000C3FE40208DF81000914A12681179904A85
:104CC0005268107804AB0122FCF736FF10B14FF0A8
:104CD000FF3024E778208DF81000894A1268517956
:104CE000874A5268107804AB0122FCF725FF10B107
:104CF0004FF0FF3013E783498889FEF79DFE0020BF
:104D00008DF810007E4A126851797D4A52681078F9
:104D100004AB0122FCF710FF10B14FF0FF30FEE6AC
:104D2000774A1268917A764A5268107804AB022268
:104D3000FCF7C6FE10B14FF0FF30F0E69DF8110011
:104D40009DF8101040EA012B0C209BFBF0F0C6B23E
:104D50000020A86068602860A060606020608246D3
:104D600065E0674A1268D17A654A5268107804ABE8
:104D70000C22FCF7A5FE10B14FF0FF30CFE69DF8F6
:104D800011009DF8101040EA012000B2ADF80800B3
:104D90009DF813009DF8121040EA012000B2ADF812
:104DA0000A009DF815009DF8141040EA012000B299
:104DB000ADF80C00BDF90810206808442060BDF96A
:104DC0000A10606808446060BDF90C10A0680844CF
:104DD000A0609DF817009DF8161040EA012000B26F
:104DE000ADF800009DF819009DF8181040EA012068
:104DF00000B2ADF802009DF81B009DF81A1040EAC1
:104E0000012000B2ADF80400BDF900102868084484
:104E10002860BDF90210686808446860BDF9041094
:104E2000A8680844A8600AF1010000F0FF0AB24532
:104E300097DB3448D0F800C02868C117090441EA5C
:104E400010410704624600233846FBF76BF93246EF
:104E50000023CDE90201FBF765F928602948D0F865
:104E600000C06868C117090441EA1041070462469E
:104E700000233846FBF756F932460023CDE90201FC
:104E8000FBF750F968601F48D0F800C0A868C11748
:104E9000090441EA10410704624600233846FBF743
:104EA00041F932460023CDE90201FBF73BF9A86046
:104EB0001448D0F804C02168C817000440EA11481B
:104EC0000F046246002338464146FBF72BF9324671
:104ED0000023CDE90201FBF725F920600948D0F84D
:104EE00004C06068C117090441EA10410704624622
:104EF00000233846FBF716F93246002304E0000091
:104F00007C0000202C650008CDE90201FBF70AF9BE
:104F100060601148D0F804C0A068C117090441EAD4
:104F200010410704624600233846FBF7FBF832467F
:104F30000023CDE90201FBF7F5F8A060A068002886
:104F400004DDA068A0F58030A06003E0A06800F553
:104F50008030A0600020E2E52C65000801200149B6
:104F6000C8707047940100202DE9FC5F06460F468B
:104F700000253D494968087801AB03220D21FCF763
:104F80009FFD10B10720BDE8FC9F9DF8040000F0D4
:104F90001F008DF804009DF8050000F01F008DF83B
:104FA00005009DF8060000F01F008DF806000024A3
:104FB00056E056F8240057F82410A0EB010BBBF183
:104FC000000F01DB594601E0CBF100010846FBF779
:104FD00049FB4FF08F410090FBF77EF9814601A815
:104FE000005D68B321490868FBF745FB83465946D5
:104FF0001F48FBF771F9804604E01E494046FBF765
:1050000039F9804601A8005D401EC0B201A90855CB
:105010000028F2D141464846FBF75EF983464FF03F
:105020007E51FBF721F982462AF0004B0F48816937
:105030005846FBF7EBFB12D20120A04005430EE0DF
:105040000A4801694846FBF7D7FB05D30748416981
:105050004846FBF7DBFB02D20120A0400543641C5D
:10506000032CA6DB28468EE77C0000202C65000878
:1050700000B04C4554E3853F10B50446204600F08F
:105080000FF80346E01C00F00BF843EAC00083B2BF
:10509000A01D00F005F843EA801083B2184610BD49
:1050A000014691F90020002A01DD00201EE091F95F
:1050B0000020002A01DA042018E091F90120002ADA
:1050C00001DD012012E091F90120002A01DA05201A
:1050D0000CE091F90220002A01DD022006E091F99E
:1050E0000220002A01DA062000E0072070470000B5
:1050F000FDF72AFD19A0FDF73DFEFCF749FEFDF77F
:105100000DFAFCF7A9FAFF20FCF71AFBFCF7B8F838
:1051100000F068F800210846FDF7DAF8FCF7DEFB3E
:10512000FCF73AFDFBF768FEFBF7B0FE14E0104811
:105130000078C0F3400008B1FDF7E2FC0C480078AD
:1051400000F0010008B1FDF797FC09480078C0F3B2
:10515000800008B1FDF7C8FCE9E7000075736172D3
:10516000742069732072656164790D0A0000000083
:105170000600002070B50446002624F001041848FB
:1051800090F8240008B1002070BD1548807A10B94D
:105190004FF0FF30F8E71248057C807A2040104934
:1051A00008740846007CA04202D04FF0FF3600E0B1
:1051B000002614B90A48007D18B1012001F034F925
:1051C00002E0002001F030F93CB100F091FC20B188
:1051D000034805744FF0FF30D6E73046D4E70000AF
:1051E0007C00002070B500F023F904460CB1FDF7F7
:1051F00049F8782001F028F808B1022070BD782025
:10520000FFF7B8FF08B10320F8E7642000F0CEFFF5
:1052100008B10420F2E70E211648FAF7BBFF03207D
:1052200014490870FEF790FF08B10520E6E7124820
:10523000FFF722FF0546FFF7E1F908B10620DDE799
:1052400040F273100B49C880C888FEF753FC08B1C0
:105250000720D3E76420FFF701F908B10820CDE764
:10526000012000F09FFE01200249487001F094F8EF
:105270000020C3E794010020A90000200146114846
:10528000407A30B1012807D0022808D003280CD179
:1052900008E0022008700BE00420087008E00820F5
:1052A000087005E01020087002E04FF0FF307047F2
:1052B00000BF0448C07C18B108784006000E087092
:1052C0000020F4E77C00002001461348407A30B10A
:1052D000012808D002280AD0032810D10BE04FF48F
:1052E000804008800EE041F69C7008800AE04FF490
:1052F0008050088006E04FF40060088002E04FF024
:10530000FF30704700BF0448C07C10B108884010CF
:1053100008800020F5E700007C00002001460248DC
:10532000007C0870002070477C00002001460F4878
:10533000007A30B1012807D0022809D003280FD104
:105340000AE0FA2008800EE04FF4FA7008800AE0C4
:105350004FF47A70088006E04FF4FA60088002E0AB
:105360000020088000BF00BF002070477C000020A4
:1053700001460E48007A30B1012807D0022808D033
:1053800003280CD108E00A4808600BE009480860CF
:1053900008E00948086005E00848086002E04FF0AE
:1053A000FF30704700BF0020FBE700007C000020BA
:1053B000000003430000834233330342333383410D
:1053C00001461248C07A082817D2DFE800F0170417
:1053D000070A0D101318BC20088013E06220088013
:1053E00010E02A2008800DE0142008800AE00A203E
:1053F000088007E00520088004E000BF00BF00200F
:10540000088000BF00BF0020704700007C00002023
:105410000146064890F8240010B14FF0FF30704765
:105420000248C08908800020F9E700007C000020C5
:105430001CB580208DF80000654A1268917C644A92
:10544000526810786B460122FCF776FB10B14FF0E2
:10545000FF301CBD6420FEF7EFFA00208DF800003D
:105460005B4A1268917C5A4A526810786B46012256
:10547000FCF762FB10B14FF0FF30EAE7544A1268C4
:10548000917D534A526810786B460622FCF718FB50
:1054900010B14FF0FF30DCE79DF80500C007400F6A
:1054A0009DF8031001F0010140EA41009DF8011050
:1054B00001F0010140EA010494B1012C03D1012162
:1054C0004348C17431E0022C03D100214048C1742B
:1054D0002BE021463FA0FDF74DFC4FF0FF30B8E731
:1054E0003B4A1268D1783A4A526810786B460122DA
:1054F000FCF7E6FA10B14FF0FF30AAE79DF8000084
:1055000000F00F042CB93D48FDF734FC4FF0FF309C
:105510009FE7042C06D13AA0FDF72CFC01212C4872
:10552000C17402E000212A48C174FF212848817219
:10553000FF2027490872FF2125484172C1724FF6AA
:10554000FF71C181FF21017481740121017380F811
:105550002210002180F8231041750175163001607A
:1055600041608160163880F8241080F82510C184CD
:105570004FF4FA6000F05EFD10B14FF0FF3068E7C5
:10558000022000F027FC10B14FF0FF3061E72A2025
:1055900000F0CAFD10B14FF0FF305AE7322000F0A2
:1055A00005FE10B14FF0FF3053E70020FFF7E2FD9A
:1055B00010B14FF0FF304CE7002000F04DFC10B16F
:1055C0004FF0FF3045E7002000F03EFE002040E7AE
:1055D0007C000020556E737570706F727465642066
:1055E000736F6674776172652070726F647563742F
:1055F000207265762025642E0A00000040720008A3
:1056000048616C662073656E736974697669747934
:10561000207061727420666F756E642E0A0000003F
:105620002DE9F04385B005460E4690469946294837
:1056300090F8250020B14FF0FF3005B0BDE8F083B1
:1056400016B94FF0FF30F8E7002423E0281B10289C
:1056500001DD102000E0281B87B2321939462046B0
:1056600000F05AFE10B14FF0FF30E6E701AA3946CC
:10567000204600F0FDF910B14FF0FF30DDE73019A2
:105680003A4601A9FAF791FD10B16FF00100D4E795
:10569000E01984B2AC42D9DB4FEA28208DF8000033
:1056A00008F0FF008DF801000A4A1268917E094A4D
:1056B000526810786B460222FCF73EFA10B14FF0A8
:1056C000FF30BAE70121034880F82510A0F82690A2
:1056D0000020B2E77C00002038B50446282C02DD0B
:1056E0004FF0FF3038BDDCB9002000F0E7FC0020AF
:1056F0008DF8000007208DF801002E4A1268917C79
:105700002C4A526810786B460222FCF715FA10B149
:105710004FF0FF30E6E70021264801750020E1E761
:10572000012000F0CBFC20208DF80000012C06D1D8
:1057300000208DF80100052000F0F6FC17E0052C94
:1057400006DC01208DF80100052000F0EDFC0EE0E4
:10575000142C06DC02208DF801000A2000F0E4FC85
:1057600005E003208DF80100142000F0DDFC9DF819
:105770000100072101EB8010C0B28DF801000D4A35
:105780001268917C0B4A526810786B460222FCF733
:10579000D3F910B14FF0FF30A4E70821054881721A
:1057A00000210173012101750020FFF7E3FC0020B7
:1057B00098E700007C0000202DE9FE4F0746884650
:1057C00092461D46DDF830B000260024774890F858
:1057D000240010B1601EBDE8FE8F002028707348C1
:1057E000807A10B94FF0FF30F5E77048007C10B9AF
:1057F0004FF0FF30EFE76D48007C00F0400008B14B
:10580000B01CC6B26948007C00F0200008B1B01C92
:10581000C6B26648007C00F0100008B1B01CC6B2E9
:105820006248007C00F0080008B1B01DC6B25F4AB3
:105830001268917A5D4A526810786B460222FCF732
:105840003FF910B14FF0FF30C5E79DF801009DF81A
:10585000001040EA0129B14501DA0020BBE75348B6
:1058600040684088B9EB600F17DD504A1268517CE0
:105870004E4A526810786B460122FCF721F910B1AC
:105880004FF0FF30A7E79DF8000000F0100020B1B6
:1058900000F02EF96FF001009DE75046FFF724F964
:1058A000424A1268D17A414A526810786B463246B1
:1058B000FCF706F910B14FF0FF308CE799FBF6F0DA
:1058C000401E8BF8000000202870B4422AD03748D0
:1058D000007C00F0080028B3601C1DF800001DF8D3
:1058E000041040EA012000B2A8F80000E01C1DF8F6
:1058F0000010A01C1DF8000041EA002000B2A8F82A
:105900000200601D1DF80010201D1DF8000041EA76
:10591000002000B2A8F80400287840F008002870A1
:10592000A01D84B2B44213D02048007C00F0400097
:1059300070B1601C1DF800001DF8041040EA012041
:1059400000B23880287840F040002870A01C84B253
:10595000B44213D01548007C00F0200070B1601CE8
:105960001DF800001DF8041040EA012000B2788004
:10597000287840F020002870A01C84B2B44213D0D4
:105980000A48007C00F0100070B1601C1DF8000097
:105990001DF8041040EA012000B2B880287840F0D9
:1059A00010002870A01C84B2002014E77C000020A6
:1059B000F8B504460F4616462C4890F8240010B956
:1059C0004FF0FF30F8BD2948807A10B94FF0FF3012
:1059D000F8E7264A1268917A244A526810786B4692
:1059E0000222FCF76DF810B14FF0FF30EAE79DF8A6
:1059F00001009DF8001040EA0125A54203DA0020CD
:105A00003070401EDEE7194840684088B5EB600FF3
:105A100017DD164A1268517C144A526810786B469A
:105A20000122FCF74DF810B14FF0FF30CAE79DF8A6
:105A3000000000F0100020B100F05AF86FF00100F3
:105A4000C0E7E2B2094B1B68D97A084B5B6818784B
:105A50003B46FCF735F810B14FF0FF30B2E795FB4D
:105A6000F4F0401E30700020ACE700007C00002005
:105A7000F8B504460D46164616B94FF0FF30F8BD8E
:105A80001A48807A10B94FF0FF30F8E720128DF8ED
:105A90000000E0B28DF801009DF801002844134990
:105AA00049684989884202DD4FF0FF30E7E70F4A35
:105AB0001268117E0D4A526810786B460222FCF77C
:105AC0003BF810B14FF0FF30D9E7EAB2074B1B6843
:105AD000597D064B5B6818783346FBF7F1FF10B130
